{
  "_format": "hh-sol-artifact-1",
  "contractName": "TaskRegistry",
  "sourceName": "contracts/TaskRegistry.sol",
  "abi": [
    {
      "inputs": [],
      "stateMutability": "nonpayable",
      "type": "constructor"
    },
    {
      "inputs": [
        {
          "internalType": "address",
          "name": "owner",
          "type": "address"
        }
      ],
      "name": "OwnableInvalidOwner",
      "type": "error"
    },
    {
      "inputs": [
        {
          "internalType": "address",
          "name": "account",
          "type": "address"
        }
      ],
      "name": "OwnableUnauthorizedAccount",
      "type": "error"
    },
    {
      "anonymous": false,
      "inputs": [
        {
          "indexed": true,
          "internalType": "address",
          "name": "task",
          "type": "address"
        },
        {
          "indexed": true,
          "internalType": "address",
          "name": "agent",
          "type": "address"
        }
      ],
      "name": "AgentAssigned",
      "type": "event"
    },
    {
      "anonymous": false,
      "inputs": [
        {
          "indexed": true,
          "internalType": "address",
          "name": "previousOwner",
          "type": "address"
        },
        {
          "indexed": true,
          "internalType": "address",
          "name": "newOwner",
          "type": "address"
        }
      ],
      "name": "OwnershipTransferred",
      "type": "event"
    },
    {
      "anonymous": false,
      "inputs": [
        {
          "indexed": true,
          "internalType": "address",
          "name": "owner",
          "type": "address"
        },
        {
          "indexed": false,
          "internalType": "address",
          "name": "task",
          "type": "address"
        }
      ],
      "name": "TaskCreated",
      "type": "event"
    },
    {
      "inputs": [
        {
          "internalType": "address",
          "name": "taskAddr",
          "type": "address"
        },
        {
          "internalType": "address",
          "name": "agent",
          "type": "address"
        }
      ],
      "name": "assignAgent",
      "outputs": [],
      "stateMutability": "nonpayable",
      "type": "function"
    },
    {
      "inputs": [
        {
          "internalType": "string",
          "name": "prompt",
          "type": "string"
        },
        {
          "internalType": "enum ITask.TaskType",
          "name": "taskType",
          "type": "uint8"
        }
      ],
      "name": "createTask",
      "outputs": [
        {
          "internalType": "address",
          "name": "",
          "type": "address"
        }
      ],
      "stateMutability": "nonpayable",
      "type": "function"
    },
    {
      "inputs": [
        {
          "internalType": "address",
          "name": "taskAddr",
          "type": "address"
        }
      ],
      "name": "getStatus",
      "outputs": [
        {
          "internalType": "enum ITask.TaskStatus",
          "name": "",
          "type": "uint8"
        }
      ],
      "stateMutability": "view",
      "type": "function"
    },
    {
      "inputs": [
        {
          "internalType": "address",
          "name": "owner",
          "type": "address"
        }
      ],
      "name": "getTasksByOwner",
      "outputs": [
        {
          "internalType": "contract Task[]",
          "name": "",
          "type": "address[]"
        }
      ],
      "stateMutability": "view",
      "type": "function"
    },
    {
      "inputs": [],
      "name": "owner",
      "outputs": [
        {
          "internalType": "address",
          "name": "",
          "type": "address"
        }
      ],
      "stateMutability": "view",
      "type": "function"
    },
    {
      "inputs": [],
      "name": "renounceOwnership",
      "outputs": [],
      "stateMutability": "nonpayable",
      "type": "function"
    },
    {
      "inputs": [
        {
          "internalType": "address",
          "name": "",
          "type": "address"
        },
        {
          "internalType": "uint256",
          "name": "",
          "type": "uint256"
        }
      ],
      "name": "tasksRegistry",
      "outputs": [
        {
          "internalType": "contract Task",
          "name": "",
          "type": "address"
        }
      ],
      "stateMutability": "view",
      "type": "function"
    },
    {
      "inputs": [
        {
          "internalType": "address",
          "name": "newOwner",
          "type": "address"
        }
      ],
      "name": "transferOwnership",
      "outputs": [],
      "stateMutability": "nonpayable",
      "type": "function"
    }
  ],
  "bytecode": "0x608060405234801561001057600080fd5b50338061003757604051631e4fbdf760e01b81526000600482015260240160405180910390fd5b61004081610046565b50610096565b600080546001600160a01b038381166001600160a01b0319831681178455604051919092169283917f8be0079c531659141344cd1fd0a4f28419497f9722a3daafe3b4186f6b6457e09190a35050565b6116ff806100a56000396000f3fe60806040523480156200001157600080fd5b5060043610620000935760003560e01c8063bc673f971162000062578063bc673f971462000115578063ce195382146200012c578063f0f39ce41462000143578063f2fde38b146200016957600080fd5b806330ccebb514620000985780635ba0d8d714620000c7578063715018a614620000f75780638da5cb5b1462000103575b600080fd5b620000af620000a936600462000672565b62000180565b604051620000be9190620006a8565b60405180910390f35b620000de620000d8366004620006f0565b620001f2565b6040516001600160a01b039091168152602001620000be565b62000101620002af565b005b6000546001600160a01b0316620000de565b6200010162000126366004620007be565b620002c7565b620000de6200013d366004620007fc565b620004da565b6200015a6200015436600462000672565b62000513565b604051620000be91906200082b565b620001016200017a36600462000672565b6200058b565b600080829050806001600160a01b031663200d2ed26040518163ffffffff1660e01b8152600401602060405180830381865afa158015620001c5573d6000803e3d6000fd5b505050506040513d601f19601f82011682018060405250810190620001eb91906200087a565b9392505050565b6000808383333060405162000207906200064e565b6200021694939291906200089d565b604051809103906000f08015801562000233573d6000803e3d6000fd5b503360008181526001602081815260408084208054938401815584529281902090910180546001600160a01b0319166001600160a01b038616908117909155915191825292935083927f5977287f5f66dc04df1a397cdd58f5db2632319686b39589ab053c2d753bf600910160405180910390a2949350505050565b620002b9620005cf565b620002c56000620005fe565b565b6000829050806001600160a01b0316638da5cb5b6040518163ffffffff1660e01b8152600401602060405180830381865afa1580156200030b573d6000803e3d6000fd5b505050506040513d601f19601f820116820180604052508101906200033191906200092e565b6001600160a01b0316336001600160a01b031614620003885760405162461bcd60e51b815260206004820152600e60248201526d139bdd08185d5d1a1bdc9a5e995960921b60448201526064015b60405180910390fd5b604051623d104160e31b81523060048201526001600160a01b038216906301e8820890602401602060405180830381865afa158015620003cc573d6000803e3d6000fd5b505050506040513d601f19601f82011682018060405250810190620003f291906200094e565b620004405760405162461bcd60e51b815260206004820152601760248201527f5265676973747279206e6f7420617574686f72697a656400000000000000000060448201526064016200037f565b60405163271c381360e11b81526001600160a01b038381166004830152821690634e38702690602401600060405180830381600087803b1580156200048457600080fd5b505af115801562000499573d6000803e3d6000fd5b50506040516001600160a01b038086169350861691507f7629256eb516bdc80342f65a097d4ecf4c301d15115c1d82f4a639c8c505f02490600090a3505050565b60016020528160005260406000208181548110620004f757600080fd5b6000918252602090912001546001600160a01b03169150829050565b6001600160a01b0381166000908152600160209081526040918290208054835181840281018401909452808452606093928301828280156200057f57602002820191906000526020600020905b81546001600160a01b0316815260019091019060200180831162000560575b50505050509050919050565b62000595620005cf565b6001600160a01b038116620005c157604051631e4fbdf760e01b8152600060048201526024016200037f565b620005cc81620005fe565b50565b6000546001600160a01b03163314620002c55760405163118cdaa760e01b81523360048201526024016200037f565b600080546001600160a01b038381166001600160a01b0319831681178455604051919092169283917f8be0079c531659141344cd1fd0a4f28419497f9722a3daafe3b4186f6b6457e09190a35050565b610d57806200097383390190565b6001600160a01b0381168114620005cc57600080fd5b6000602082840312156200068557600080fd5b8135620001eb816200065c565b634e487b7160e01b600052602160045260246000fd5b6020810160048310620006bf57620006bf62000692565b91905290565b634e487b7160e01b600052604160045260246000fd5b803560038110620006eb57600080fd5b919050565b600080604083850312156200070457600080fd5b823567ffffffffffffffff808211156200071d57600080fd5b818501915085601f8301126200073257600080fd5b813581811115620007475762000747620006c5565b604051601f8201601f19908116603f01168101908382118183101715620007725762000772620006c5565b816040528281528860208487010111156200078c57600080fd5b826020860160208301376000602084830101528096505050505050620007b560208401620006db565b90509250929050565b60008060408385031215620007d257600080fd5b8235620007df816200065c565b91506020830135620007f1816200065c565b809150509250929050565b600080604083850312156200081057600080fd5b82356200081d816200065c565b946020939093013593505050565b6020808252825182820181905260009190848201906040850190845b818110156200086e5783516001600160a01b03168352928401929184019160010162000847565b50909695505050505050565b6000602082840312156200088d57600080fd5b815160048110620001eb57600080fd5b608081526000855180608084015260005b81811015620008cd57602081890181015160a0868401015201620008ae565b50600060a0828501015260a0601f19601f83011684010191505060038510620008fa57620008fa62000692565b8460208301526200091660408301856001600160a01b03169052565b6001600160a01b038316606083015295945050505050565b6000602082840312156200094157600080fd5b8151620001eb816200065c565b6000602082840312156200096157600080fd5b81518015158114620001eb57600080fdfe60806040523480156200001157600080fd5b5060405162000d5738038062000d57833981016040819052620000349162000176565b816001600160a01b0381166200006457604051631e4fbdf760e01b81526000600482015260240160405180910390fd5b6200006f81620000e3565b5060018055600262000082858262000312565b506003805484919060ff19166001836002811115620000a557620000a5620003de565b02179055506005805460ff60a01b191690556001600160a01b03166000908152600460205260409020805460ff1916600117905550620003f4915050565b600080546001600160a01b038381166001600160a01b0319831681178455604051919092169283917f8be0079c531659141344cd1fd0a4f28419497f9722a3daafe3b4186f6b6457e09190a35050565b634e487b7160e01b600052604160045260246000fd5b8051600381106200015957600080fd5b919050565b80516001600160a01b03811681146200015957600080fd5b600080600080608085870312156200018d57600080fd5b84516001600160401b0380821115620001a557600080fd5b818701915087601f830112620001ba57600080fd5b815181811115620001cf57620001cf62000133565b604051601f8201601f19908116603f01168101908382118183101715620001fa57620001fa62000133565b81604052828152602093508a848487010111156200021757600080fd5b600091505b828210156200023b57848201840151818301850152908301906200021c565b60008484830101528098505050506200025681880162000149565b9450505062000268604086016200015e565b915062000278606086016200015e565b905092959194509250565b600181811c908216806200029857607f821691505b602082108103620002b957634e487b7160e01b600052602260045260246000fd5b50919050565b601f8211156200030d57600081815260208120601f850160051c81016020861015620002e85750805b601f850160051c820191505b818110156200030957828155600101620002f4565b5050505b505050565b81516001600160401b038111156200032e576200032e62000133565b62000346816200033f845462000283565b84620002bf565b602080601f8311600181146200037e5760008415620003655750858301515b600019600386901b1c1916600185901b17855562000309565b600085815260208120601f198616915b82811015620003af578886015182559484019460019091019084016200038e565b5085821015620003ce5787850151600019600388901b60f8161c191681555b5050505050600190811b01905550565b634e487b7160e01b600052602160045260246000fd5b61095380620004046000396000f3fe608060405234801561001057600080fd5b50600436106100cf5760003560e01c80637c65d7111161008c578063aa92e29f11610066578063aa92e29f146101c7578063ec6263c0146101d8578063ef17a55e146101eb578063f2fde38b146101fe57600080fd5b80637c65d711146101875780638cf6f32c1461019c5780638da5cb5b146101b657600080fd5b806301e88208146100d4578063200d2ed21461010c5780634e3870261461012d5780634e69d56014610142578063682c994c14610154578063715018a61461017f575b600080fd5b6100f76100e236600461075a565b60046020526000908152604090205460ff1681565b60405190151581526020015b60405180910390f35b60055461012090600160a01b900460ff1681565b6040516101039190610792565b61014061013b36600461075a565b610211565b005b600554600160a01b900460ff16610120565b600554610167906001600160a01b031681565b6040516001600160a01b039091168152602001610103565b610140610333565b61018f610347565b60405161010391906107ac565b6003546101a99060ff1681565b60405161010391906107fa565b6000546001600160a01b0316610167565b6005546001600160a01b0316610167565b6101406101e636600461080e565b6103d5565b6100f76101f936600461084a565b61044d565b61014061020c36600461075a565b610659565b600080600554600160a01b900460ff1660038111156102325761023261077c565b1461027a5760405162461bcd60e51b8152602060048201526013602482015272496e76616c6964207461736b2073746174757360681b60448201526064015b60405180910390fd5b6000546001600160a01b03163314806102a257503360009081526004602052604090205460ff165b6102df5760405162461bcd60e51b815260206004820152600e60248201526d139bdd08185d5d1a1bdc9a5e995960921b6044820152606401610271565b600580546001600160a01b0384166001600160a81b03199091168117600160a01b1790915560405130907f52476d55ecef5cf13caa64038f297fe6bbf865d9584a98b8722a15a6d5db128f90600090a35050565b61033b610697565b61034560006106c4565b565b60028054610354906108d3565b80601f0160208091040260200160405190810160405280929190818152602001828054610380906108d3565b80156103cd5780601f106103a2576101008083540402835291602001916103cd565b820191906000526020600020905b8154815290600101906020018083116103b057829003601f168201915b505050505081565b6103dd610697565b6001600160a01b03821660009081526004602052604090819020805460ff1916831515179055600554905130917fd76ef80cfb1ce0c70d0cbc0ab1b9f2f298a78f9fca5c841be963ae9a5d721bb4916104419160ff600160a01b9091041690610792565b60405180910390a25050565b6005546000906001600160a01b031633146104aa5760405162461bcd60e51b815260206004820152601960248201527f4f6e6c792061737369676e65652063616e2065786563757465000000000000006044820152606401610271565b600180600554600160a01b900460ff1660038111156104cb576104cb61077c565b1461050e5760405162461bcd60e51b8152602060048201526013602482015272496e76616c6964207461736b2073746174757360681b6044820152606401610271565b610516610714565b6001600160a01b03841660009081526004602052604090205460ff166105755760405162461bcd60e51b815260206004820152601460248201527315185c99d95d081b9bdd081c195c9b5a5d1d195960621b6044820152606401610271565b6000846001600160a01b031684888860405161059292919061090d565b60006040518083038185875af1925050503d80600081146105cf576040519150601f19603f3d011682016040523d82523d6000602084013e6105d4565b606091505b50509050806105e45760036105e7565b60025b6005805460ff60a01b1916600160a01b8360038111156106095761060961077c565b0217905550604051811515815230907f927ecc698e7293785487e40c7eb8f2aefb6abc81d77df63ab5d5c883da1df93a9060200160405180910390a2915061065060018055565b50949350505050565b610661610697565b6001600160a01b03811661068b57604051631e4fbdf760e01b815260006004820152602401610271565b610694816106c4565b50565b6000546001600160a01b031633146103455760405163118cdaa760e01b8152336004820152602401610271565b600080546001600160a01b038381166001600160a01b0319831681178455604051919092169283917f8be0079c531659141344cd1fd0a4f28419497f9722a3daafe3b4186f6b6457e09190a35050565b60026001540361073757604051633ee5aeb560e01b815260040160405180910390fd5b6002600155565b80356001600160a01b038116811461075557600080fd5b919050565b60006020828403121561076c57600080fd5b6107758261073e565b9392505050565b634e487b7160e01b600052602160045260246000fd5b60208101600483106107a6576107a661077c565b91905290565b600060208083528351808285015260005b818110156107d9578581018301518582016040015282016107bd565b506000604082860101526040601f19601f8301168501019250505092915050565b60208101600383106107a6576107a661077c565b6000806040838503121561082157600080fd5b61082a8361073e565b91506020830135801515811461083f57600080fd5b809150509250929050565b6000806000806060858703121561086057600080fd5b843567ffffffffffffffff8082111561087857600080fd5b818701915087601f83011261088c57600080fd5b81358181111561089b57600080fd5b8860208285010111156108ad57600080fd5b6020928301965094506108c3918701905061073e565b9396929550929360400135925050565b600181811c908216806108e757607f821691505b60208210810361090757634e487b7160e01b600052602260045260246000fd5b50919050565b818382376000910190815291905056fea2646970667358221220e91e59b8c48155b2fe5982326b78ab5f1a36f24c31d1b68e5e92c9f80889bd4964736f6c63430008140033a2646970667358221220cdb2f9bcd93fb7155b2ed2a18ca3b044bd0ffd9ff3090bce52a01a251f76ccde64736f6c63430008140033",
  "linkReferences": {},
  "deployedLinkReferences": {}
}