{
  "_format": "hh-sol-artifact-1",
  "contractName": "TaskRegistry",
  "sourceName": "contracts/TaskRegistry.sol",
  "abi": [
    {
      "inputs": [],
      "stateMutability": "nonpayable",
      "type": "constructor"
    },
    {
      "inputs": [
        {
          "internalType": "address",
          "name": "owner",
          "type": "address"
        }
      ],
      "name": "OwnableInvalidOwner",
      "type": "error"
    },
    {
      "inputs": [
        {
          "internalType": "address",
          "name": "account",
          "type": "address"
        }
      ],
      "name": "OwnableUnauthorizedAccount",
      "type": "error"
    },
    {
      "anonymous": false,
      "inputs": [
        {
          "indexed": true,
          "internalType": "address",
          "name": "previousOwner",
          "type": "address"
        },
        {
          "indexed": true,
          "internalType": "address",
          "name": "newOwner",
          "type": "address"
        }
      ],
      "name": "OwnershipTransferred",
      "type": "event"
    },
    {
      "anonymous": false,
      "inputs": [
        {
          "indexed": true,
          "internalType": "address",
          "name": "task",
          "type": "address"
        },
        {
          "indexed": true,
          "internalType": "address",
          "name": "user",
          "type": "address"
        },
        {
          "indexed": false,
          "internalType": "bool",
          "name": "allowed",
          "type": "bool"
        }
      ],
      "name": "PermissionUpdated",
      "type": "event"
    },
    {
      "anonymous": false,
      "inputs": [
        {
          "indexed": true,
          "internalType": "address",
          "name": "task",
          "type": "address"
        },
        {
          "indexed": true,
          "internalType": "address",
          "name": "agent",
          "type": "address"
        }
      ],
      "name": "TaskAssigned",
      "type": "event"
    },
    {
      "anonymous": false,
      "inputs": [
        {
          "indexed": true,
          "internalType": "address",
          "name": "owner",
          "type": "address"
        },
        {
          "indexed": false,
          "internalType": "address",
          "name": "task",
          "type": "address"
        }
      ],
      "name": "TaskCreated",
      "type": "event"
    },
    {
      "anonymous": false,
      "inputs": [
        {
          "indexed": true,
          "internalType": "address",
          "name": "task",
          "type": "address"
        },
        {
          "indexed": false,
          "internalType": "enum ITask.TaskStatus",
          "name": "status",
          "type": "uint8"
        }
      ],
      "name": "TaskStatusChanged",
      "type": "event"
    },
    {
      "inputs": [
        {
          "internalType": "address",
          "name": "taskAddr",
          "type": "address"
        },
        {
          "internalType": "address",
          "name": "_assignee",
          "type": "address"
        }
      ],
      "name": "assignTo",
      "outputs": [],
      "stateMutability": "nonpayable",
      "type": "function"
    },
    {
      "inputs": [
        {
          "internalType": "string",
          "name": "prompt",
          "type": "string"
        },
        {
          "internalType": "enum ITask.TaskType",
          "name": "taskType",
          "type": "uint8"
        }
      ],
      "name": "createTask",
      "outputs": [
        {
          "internalType": "address",
          "name": "",
          "type": "address"
        }
      ],
      "stateMutability": "nonpayable",
      "type": "function"
    },
    {
      "inputs": [
        {
          "internalType": "address",
          "name": "taskAddr",
          "type": "address"
        }
      ],
      "name": "getAssignee",
      "outputs": [
        {
          "internalType": "address",
          "name": "",
          "type": "address"
        }
      ],
      "stateMutability": "view",
      "type": "function"
    },
    {
      "inputs": [
        {
          "internalType": "address",
          "name": "taskAddr",
          "type": "address"
        }
      ],
      "name": "getStatus",
      "outputs": [
        {
          "internalType": "enum ITask.TaskStatus",
          "name": "",
          "type": "uint8"
        }
      ],
      "stateMutability": "view",
      "type": "function"
    },
    {
      "inputs": [
        {
          "internalType": "address",
          "name": "owner",
          "type": "address"
        }
      ],
      "name": "getTasksByOwner",
      "outputs": [
        {
          "internalType": "address[]",
          "name": "",
          "type": "address[]"
        }
      ],
      "stateMutability": "view",
      "type": "function"
    },
    {
      "inputs": [],
      "name": "owner",
      "outputs": [
        {
          "internalType": "address",
          "name": "",
          "type": "address"
        }
      ],
      "stateMutability": "view",
      "type": "function"
    },
    {
      "inputs": [
        {
          "internalType": "address",
          "name": "",
          "type": "address"
        },
        {
          "internalType": "uint256",
          "name": "",
          "type": "uint256"
        }
      ],
      "name": "ownerTasks",
      "outputs": [
        {
          "internalType": "address",
          "name": "",
          "type": "address"
        }
      ],
      "stateMutability": "view",
      "type": "function"
    },
    {
      "inputs": [],
      "name": "renounceOwnership",
      "outputs": [],
      "stateMutability": "nonpayable",
      "type": "function"
    },
    {
      "inputs": [
        {
          "internalType": "address",
          "name": "taskAddr",
          "type": "address"
        },
        {
          "internalType": "address",
          "name": "user",
          "type": "address"
        },
        {
          "internalType": "bool",
          "name": "allowed",
          "type": "bool"
        }
      ],
      "name": "setPermission",
      "outputs": [],
      "stateMutability": "nonpayable",
      "type": "function"
    },
    {
      "inputs": [
        {
          "internalType": "address",
          "name": "",
          "type": "address"
        }
      ],
      "name": "tasks",
      "outputs": [
        {
          "internalType": "string",
          "name": "prompt",
          "type": "string"
        },
        {
          "internalType": "enum ITask.TaskType",
          "name": "taskType",
          "type": "uint8"
        },
        {
          "internalType": "address",
          "name": "owner",
          "type": "address"
        },
        {
          "internalType": "enum ITask.TaskStatus",
          "name": "status",
          "type": "uint8"
        },
        {
          "internalType": "address",
          "name": "assignee",
          "type": "address"
        }
      ],
      "stateMutability": "view",
      "type": "function"
    },
    {
      "inputs": [
        {
          "internalType": "address",
          "name": "newOwner",
          "type": "address"
        }
      ],
      "name": "transferOwnership",
      "outputs": [],
      "stateMutability": "nonpayable",
      "type": "function"
    },
    {
      "inputs": [
        {
          "internalType": "address",
          "name": "taskAddr",
          "type": "address"
        },
        {
          "internalType": "enum ITask.TaskStatus",
          "name": "newStatus",
          "type": "uint8"
        }
      ],
      "name": "updateTaskStatus",
      "outputs": [],
      "stateMutability": "nonpayable",
      "type": "function"
    }
  ],
  "bytecode": "0x608060405234801561001057600080fd5b50338061003757604051631e4fbdf760e01b81526000600482015260240160405180910390fd5b61004081610046565b50610096565b600080546001600160a01b038381166001600160a01b0319831681178455604051919092169283917f8be0079c531659141344cd1fd0a4f28419497f9722a3daafe3b4186f6b6457e09190a35050565b6114f8806100a56000396000f3fe608060405234801561001057600080fd5b50600436106100b45760003560e01c8063aa4b826a11610071578063aa4b826a1461017f578063bfa38ada14610192578063c0b6c731146101c1578063c47ccc4a146101d4578063f0f39ce4146101e7578063f2fde38b1461020757600080fd5b806303d5489a146100b957806330ccebb5146100e95780635ba0d8d71461012d578063715018a61461014057806377c237fd1461014a5780638da5cb5b1461016e575b600080fd5b6100cc6100c7366004610901565b61021a565b6040516001600160a01b0390911681526020015b60405180910390f35b6101206100f736600461092b565b6001600160a01b031660009081526001602081905260409091200154600160a81b900460ff1690565b6040516100e09190610977565b6100cc61013b3660046109aa565b610252565b610148610393565b005b61015d61015836600461092b565b6103a7565b6040516100e0959493929190610a7c565b6000546001600160a01b03166100cc565b61014861018d366004610b06565b610473565b6100cc6101a036600461092b565b6001600160a01b039081166000908152600160205260409020600201541690565b6101486101cf366004610b52565b610549565b6101486101e2366004610b8d565b610621565b6101fa6101f536600461092b565b6107a7565b6040516100e09190610bb7565b61014861021536600461092b565b61081d565b6002602052816000526040600020818154811061023657600080fd5b6000918252602090912001546001600160a01b03169150829050565b60008030604051610262906108d8565b6001600160a01b039091168152602001604051809103906000f08015801561028e573d6000803e3d6000fd5b506001600160a01b0381166000908152600160205260409020909150806102b58682610c8d565b5060018082018054869260ff19909116908360028111156102d8576102d861094d565b021790555060018181018054610100600160b01b03191633610100810260ff60a81b1916919091179091553060009081526003840160209081526040808320805460ff191686179055838352600282528083208054958601815583529181902090930180546001600160a01b0319166001600160a01b0387169081179091558151908152905191927f5977287f5f66dc04df1a397cdd58f5db2632319686b39589ab053c2d753bf60092918290030190a25090505b92915050565b61039b61085b565b6103a56000610888565b565b6001602052600090815260409020805481906103c290610c04565b80601f01602080910402602001604051908101604052809291908181526020018280546103ee90610c04565b801561043b5780601f106104105761010080835404028352916020019161043b565b820191906000526020600020905b81548152906001019060200180831161041e57829003601f168201915b5050506001840154600290940154929360ff808216946001600160a01b03610100840481169550600160a81b90930490911692501685565b6001600160a01b0380841660009081526001602081905260409091209081015490913361010090920416146104e05760405162461bcd60e51b815260206004820152600e60248201526d139bdd08185d5d1a1bdc9a5e995960921b60448201526064015b60405180910390fd5b6001600160a01b038381166000818152600384016020908152604091829020805460ff1916871515908117909155915191825291928716917f394777a58092892d136a90c4bb7e4350c72ac50fba6a0208128677f36527dcf5910160405180910390a350505050565b6001600160a01b03821660008181526001602052604090209033146105b05760405162461bcd60e51b815260206004820152601b60248201527f4f6e6c79207461736b2063616e2075706461746520737461747573000000000060448201526064016104d7565b60018101805483919060ff60a81b1916600160a81b8360038111156105d7576105d761094d565b0217905550826001600160a01b03167e4961faf5705b2d0656e64b56064817b7e3f00eefca17906d2d1600b20b73ec836040516106149190610977565b60405180910390a2505050565b6001600160a01b03808316600090815260016020819052604090912090810154909133610100909204161480610668575033600090815260038201602052604090205460ff165b6106a55760405162461bcd60e51b815260206004820152600e60248201526d139bdd08185d5d1a1bdc9a5e995960921b60448201526064016104d7565b60006001820154600160a81b900460ff1660038111156106c7576106c761094d565b1461070a5760405162461bcd60e51b8152602060048201526013602482015272496e76616c6964207461736b2073746174757360681b60448201526064016104d7565b6002810180546001600160a01b0319166001600160a01b0384811691821790925560018301805460ff60a81b1916600160a81b17905560405190918516907fab5d50164722797c77525b99097a067079936c851f940fa0df342c94fcef427c90600090a3826001600160a01b03167e4961faf5705b2d0656e64b56064817b7e3f00eefca17906d2d1600b20b73ec60016040516106149190610977565b6001600160a01b03811660009081526002602090815260409182902080548351818402810184019094528084526060939283018282801561081157602002820191906000526020600020905b81546001600160a01b031681526001909101906020018083116107f3575b50505050509050919050565b61082561085b565b6001600160a01b03811661084f57604051631e4fbdf760e01b8152600060048201526024016104d7565b61085881610888565b50565b6000546001600160a01b031633146103a55760405163118cdaa760e01b81523360048201526024016104d7565b600080546001600160a01b038381166001600160a01b0319831681178455604051919092169283917f8be0079c531659141344cd1fd0a4f28419497f9722a3daafe3b4186f6b6457e09190a35050565b61077580610d4e83390190565b80356001600160a01b03811681146108fc57600080fd5b919050565b6000806040838503121561091457600080fd5b61091d836108e5565b946020939093013593505050565b60006020828403121561093d57600080fd5b610946826108e5565b9392505050565b634e487b7160e01b600052602160045260246000fd5b600481106109735761097361094d565b9052565b6020810161038d8284610963565b634e487b7160e01b600052604160045260246000fd5b8035600381106108fc57600080fd5b600080604083850312156109bd57600080fd5b823567ffffffffffffffff808211156109d557600080fd5b818501915085601f8301126109e957600080fd5b8135818111156109fb576109fb610985565b604051601f8201601f19908116603f01168101908382118183101715610a2357610a23610985565b81604052828152886020848701011115610a3c57600080fd5b826020860160208301376000602084830101528096505050505050610a636020840161099b565b90509250929050565b600381106109735761097361094d565b60a08152600086518060a084015260005b81811015610aaa576020818a0181015160c0868401015201610a8d565b50600060c0828501015260c0601f19601f830116840101915050610ad16020830187610a6c565b6001600160a01b0385166040830152610aed6060830185610963565b6001600160a01b03831660808301529695505050505050565b600080600060608486031215610b1b57600080fd5b610b24846108e5565b9250610b32602085016108e5565b915060408401358015158114610b4757600080fd5b809150509250925092565b60008060408385031215610b6557600080fd5b610b6e836108e5565b9150602083013560048110610b8257600080fd5b809150509250929050565b60008060408385031215610ba057600080fd5b610ba9836108e5565b9150610a63602084016108e5565b6020808252825182820181905260009190848201906040850190845b81811015610bf85783516001600160a01b031683529284019291840191600101610bd3565b50909695505050505050565b600181811c90821680610c1857607f821691505b602082108103610c3857634e487b7160e01b600052602260045260246000fd5b50919050565b601f821115610c8857600081815260208120601f850160051c81016020861015610c655750805b601f850160051c820191505b81811015610c8457828155600101610c71565b5050505b505050565b815167ffffffffffffffff811115610ca757610ca7610985565b610cbb81610cb58454610c04565b84610c3e565b602080601f831160018114610cf05760008415610cd85750858301515b600019600386901b1c1916600185901b178555610c84565b600085815260208120601f198616915b82811015610d1f57888601518255948401946001909101908401610d00565b5085821015610d3d5787850151600019600388901b60f8161c191681555b5050505050600190811b0190555056fe60a060405234801561001057600080fd5b5060405161077538038061077583398101604081905261002f91610045565b60016000556001600160a01b0316608052610075565b60006020828403121561005757600080fd5b81516001600160a01b038116811461006e57600080fd5b9392505050565b6080516106c46100b16000396000818160740152818160f1015281816101810152818161021301528181610302015261042e01526106c46000f3fe608060405234801561001057600080fd5b506004361061004c5760003560e01c80634e69d560146100515780637b1039991461006f578063aa92e29f146100ae578063ef17a55e146100b6575b600080fd5b6100596100d9565b6040516100669190610567565b60405180910390f35b6100967f000000000000000000000000000000000000000000000000000000000000000081565b6040516001600160a01b039091168152602001610066565b610096610169565b6100c96100c4366004610593565b6101f4565b6040519015158152602001610066565b6040516330ccebb560e01b81523060048201526000907f00000000000000000000000000000000000000000000000000000000000000006001600160a01b0316906330ccebb590602401602060405180830381865afa158015610140573d6000803e3d6000fd5b505050506040513d601f19601f82011682018060405250810190610164919061061c565b905090565b604051635fd1c56d60e11b81523060048201526000907f00000000000000000000000000000000000000000000000000000000000000006001600160a01b03169063bfa38ada90602401602060405180830381865afa1580156101d0573d6000803e3d6000fd5b505050506040513d601f19601f820116820180604052508101906101649190610644565b60006101fe610505565b604051635fd1c56d60e11b81523060048201527f00000000000000000000000000000000000000000000000000000000000000006001600160a01b03169063bfa38ada90602401602060405180830381865afa158015610262573d6000803e3d6000fd5b505050506040513d601f19601f820116820180604052508101906102869190610644565b6001600160a01b0316336001600160a01b0316146102eb5760405162461bcd60e51b815260206004820152601960248201527f4f6e6c792061737369676e65652063616e20657865637574650000000000000060448201526064015b60405180910390fd5b60016040516330ccebb560e01b81523060048201527f00000000000000000000000000000000000000000000000000000000000000006001600160a01b0316906330ccebb590602401602060405180830381865afa158015610351573d6000803e3d6000fd5b505050506040513d601f19601f82011682018060405250810190610375919061061c565b60038111156103865761038661052f565b146103c95760405162461bcd60e51b8152602060048201526013602482015272496e76616c6964207461736b2073746174757360681b60448201526064016102e2565b6000836001600160a01b03168387876040516103e6929190610661565b60006040518083038185875af1925050503d8060008114610423576040519150601f19603f3d011682016040523d82523d6000602084013e610428565b606091505b505090507f00000000000000000000000000000000000000000000000000000000000000006001600160a01b031663c0b6c731308361046857600361046b565b60025b6040518363ffffffff1660e01b8152600401610488929190610671565b600060405180830381600087803b1580156104a257600080fd5b505af11580156104b6573d6000803e3d6000fd5b505060405183151581523092507f927ecc698e7293785487e40c7eb8f2aefb6abc81d77df63ab5d5c883da1df93a915060200160405180910390a290506104fd6001600055565b949350505050565b60026000540361052857604051633ee5aeb560e01b815260040160405180910390fd5b6002600055565b634e487b7160e01b600052602160045260246000fd5b6004811061056357634e487b7160e01b600052602160045260246000fd5b9052565b602081016105758284610545565b92915050565b6001600160a01b038116811461059057600080fd5b50565b600080600080606085870312156105a957600080fd5b843567ffffffffffffffff808211156105c157600080fd5b818701915087601f8301126105d557600080fd5b8135818111156105e457600080fd5b8860208285010111156105f657600080fd5b6020928301965094505085013561060c8161057b565b9396929550929360400135925050565b60006020828403121561062e57600080fd5b81516004811061063d57600080fd5b9392505050565b60006020828403121561065657600080fd5b815161063d8161057b565b8183823760009101908152919050565b6001600160a01b03831681526040810161063d602083018461054556fea2646970667358221220cc0850849250f85040113256a9489f68ea20739b240b801fbf4eac973c0fdce064736f6c63430008140033a2646970667358221220552256f032da69ce240041ff7923ac53ac803e00a401e149d40a8d665a2e6f0e64736f6c63430008140033",
  "linkReferences": {},
  "deployedLinkReferences": {}
}