{
  "_format": "hh-sol-artifact-1",
  "contractName": "TaskConnector",
  "sourceName": "contracts/TaskConnector.sol",
  "abi": [
    {
      "inputs": [
        {
          "internalType": "address",
          "name": "_registry",
          "type": "address"
        }
      ],
      "stateMutability": "nonpayable",
      "type": "constructor"
    },
    {
      "inputs": [],
      "name": "ReentrancyGuardReentrantCall",
      "type": "error"
    },
    {
      "anonymous": false,
      "inputs": [
        {
          "indexed": true,
          "internalType": "uint256",
          "name": "taskId",
          "type": "uint256"
        },
        {
          "indexed": false,
          "internalType": "address",
          "name": "assignee",
          "type": "address"
        }
      ],
      "name": "TaskAssigned",
      "type": "event"
    },
    {
      "anonymous": false,
      "inputs": [
        {
          "indexed": true,
          "internalType": "uint256",
          "name": "taskId",
          "type": "uint256"
        },
        {
          "indexed": false,
          "internalType": "bool",
          "name": "success",
          "type": "bool"
        }
      ],
      "name": "TaskExecuted",
      "type": "event"
    },
    {
      "anonymous": false,
      "inputs": [
        {
          "indexed": true,
          "internalType": "uint256",
          "name": "taskId",
          "type": "uint256"
        },
        {
          "indexed": false,
          "internalType": "enum ITask.TaskStatus",
          "name": "status",
          "type": "uint8"
        }
      ],
      "name": "TaskStatusChanged",
      "type": "event"
    },
    {
      "inputs": [
        {
          "internalType": "bytes",
          "name": "data",
          "type": "bytes"
        },
        {
          "internalType": "address",
          "name": "target",
          "type": "address"
        },
        {
          "internalType": "uint256",
          "name": "value",
          "type": "uint256"
        }
      ],
      "name": "execute",
      "outputs": [
        {
          "internalType": "bool",
          "name": "",
          "type": "bool"
        }
      ],
      "stateMutability": "nonpayable",
      "type": "function"
    },
    {
      "inputs": [],
      "name": "getAssignee",
      "outputs": [
        {
          "internalType": "address",
          "name": "",
          "type": "address"
        }
      ],
      "stateMutability": "view",
      "type": "function"
    },
    {
      "inputs": [],
      "name": "getStatus",
      "outputs": [
        {
          "internalType": "enum ITask.TaskStatus",
          "name": "",
          "type": "uint8"
        }
      ],
      "stateMutability": "view",
      "type": "function"
    },
    {
      "inputs": [],
      "name": "registry",
      "outputs": [
        {
          "internalType": "contract TaskRegistry",
          "name": "",
          "type": "address"
        }
      ],
      "stateMutability": "view",
      "type": "function"
    }
  ],
  "bytecode": "0x60a060405234801561001057600080fd5b5060405161077538038061077583398101604081905261002f91610045565b60016000556001600160a01b0316608052610075565b60006020828403121561005757600080fd5b81516001600160a01b038116811461006e57600080fd5b9392505050565b6080516106c46100b16000396000818160740152818160f1015281816101810152818161021301528181610302015261042e01526106c46000f3fe608060405234801561001057600080fd5b506004361061004c5760003560e01c80634e69d560146100515780637b1039991461006f578063aa92e29f146100ae578063ef17a55e146100b6575b600080fd5b6100596100d9565b6040516100669190610567565b60405180910390f35b6100967f000000000000000000000000000000000000000000000000000000000000000081565b6040516001600160a01b039091168152602001610066565b610096610169565b6100c96100c4366004610593565b6101f4565b6040519015158152602001610066565b6040516330ccebb560e01b81523060048201526000907f00000000000000000000000000000000000000000000000000000000000000006001600160a01b0316906330ccebb590602401602060405180830381865afa158015610140573d6000803e3d6000fd5b505050506040513d601f19601f82011682018060405250810190610164919061061c565b905090565b604051635fd1c56d60e11b81523060048201526000907f00000000000000000000000000000000000000000000000000000000000000006001600160a01b03169063bfa38ada90602401602060405180830381865afa1580156101d0573d6000803e3d6000fd5b505050506040513d601f19601f820116820180604052508101906101649190610644565b60006101fe610505565b604051635fd1c56d60e11b81523060048201527f00000000000000000000000000000000000000000000000000000000000000006001600160a01b03169063bfa38ada90602401602060405180830381865afa158015610262573d6000803e3d6000fd5b505050506040513d601f19601f820116820180604052508101906102869190610644565b6001600160a01b0316336001600160a01b0316146102eb5760405162461bcd60e51b815260206004820152601960248201527f4f6e6c792061737369676e65652063616e20657865637574650000000000000060448201526064015b60405180910390fd5b60016040516330ccebb560e01b81523060048201527f00000000000000000000000000000000000000000000000000000000000000006001600160a01b0316906330ccebb590602401602060405180830381865afa158015610351573d6000803e3d6000fd5b505050506040513d601f19601f82011682018060405250810190610375919061061c565b60038111156103865761038661052f565b146103c95760405162461bcd60e51b8152602060048201526013602482015272496e76616c6964207461736b2073746174757360681b60448201526064016102e2565b6000836001600160a01b03168387876040516103e6929190610661565b60006040518083038185875af1925050503d8060008114610423576040519150601f19603f3d011682016040523d82523d6000602084013e610428565b606091505b505090507f00000000000000000000000000000000000000000000000000000000000000006001600160a01b031663c0b6c731308361046857600361046b565b60025b6040518363ffffffff1660e01b8152600401610488929190610671565b600060405180830381600087803b1580156104a257600080fd5b505af11580156104b6573d6000803e3d6000fd5b505060405183151581523092507f927ecc698e7293785487e40c7eb8f2aefb6abc81d77df63ab5d5c883da1df93a915060200160405180910390a290506104fd6001600055565b949350505050565b60026000540361052857604051633ee5aeb560e01b815260040160405180910390fd5b6002600055565b634e487b7160e01b600052602160045260246000fd5b6004811061056357634e487b7160e01b600052602160045260246000fd5b9052565b602081016105758284610545565b92915050565b6001600160a01b038116811461059057600080fd5b50565b600080600080606085870312156105a957600080fd5b843567ffffffffffffffff808211156105c157600080fd5b818701915087601f8301126105d557600080fd5b8135818111156105e457600080fd5b8860208285010111156105f657600080fd5b6020928301965094505085013561060c8161057b565b9396929550929360400135925050565b60006020828403121561062e57600080fd5b81516004811061063d57600080fd5b9392505050565b60006020828403121561065657600080fd5b815161063d8161057b565b8183823760009101908152919050565b6001600160a01b03831681526040810161063d602083018461054556fea2646970667358221220cc0850849250f85040113256a9489f68ea20739b240b801fbf4eac973c0fdce064736f6c63430008140033",
  "linkReferences": {},
  "deployedLinkReferences": {}
}