{
  "_format": "hh-sol-artifact-1",
  "contractName": "TaskConnector",
  "sourceName": "contracts/TaskConnector.sol",
  "abi": [
    {
      "inputs": [
        {
          "internalType": "address",
          "name": "_registry",
          "type": "address"
        }
      ],
      "stateMutability": "nonpayable",
      "type": "constructor"
    },
    {
      "inputs": [],
      "name": "ReentrancyGuardReentrantCall",
      "type": "error"
    },
    {
      "anonymous": false,
      "inputs": [
        {
          "indexed": true,
          "internalType": "uint256",
          "name": "taskId",
          "type": "uint256"
        },
        {
          "indexed": false,
          "internalType": "bool",
          "name": "success",
          "type": "bool"
        }
      ],
      "name": "TaskExecuted",
      "type": "event"
    },
    {
      "inputs": [
        {
          "internalType": "bytes",
          "name": "data",
          "type": "bytes"
        },
        {
          "internalType": "address",
          "name": "target",
          "type": "address"
        },
        {
          "internalType": "uint256",
          "name": "value",
          "type": "uint256"
        }
      ],
      "name": "execute",
      "outputs": [
        {
          "internalType": "bool",
          "name": "",
          "type": "bool"
        }
      ],
      "stateMutability": "nonpayable",
      "type": "function"
    },
    {
      "inputs": [
        {
          "internalType": "address",
          "name": "",
          "type": "address"
        }
      ],
      "name": "permissions",
      "outputs": [
        {
          "internalType": "bool",
          "name": "",
          "type": "bool"
        }
      ],
      "stateMutability": "view",
      "type": "function"
    },
    {
      "inputs": [],
      "name": "registry",
      "outputs": [
        {
          "internalType": "contract TaskRegistry",
          "name": "",
          "type": "address"
        }
      ],
      "stateMutability": "view",
      "type": "function"
    },
    {
      "inputs": [
        {
          "internalType": "address",
          "name": "user",
          "type": "address"
        },
        {
          "internalType": "bool",
          "name": "allowed",
          "type": "bool"
        }
      ],
      "name": "setPermission",
      "outputs": [],
      "stateMutability": "nonpayable",
      "type": "function"
    }
  ],
  "bytecode": "0x60a060405234801561001057600080fd5b506040516106c93803806106c983398101604081905261002f91610062565b600160008181556001600160a01b039092166080819052825260208190526040909120805460ff19169091179055610092565b60006020828403121561007457600080fd5b81516001600160a01b038116811461008b57600080fd5b9392505050565b6080516106106100b960003960008181608e0152818160fb015261027401526106106000f3fe608060405234801561001057600080fd5b506004361061004c5760003560e01c806301e88208146100515780637b10399914610089578063ec6263c0146100c8578063ef17a55e146100dd575b600080fd5b61007461005f36600461048b565b60016020526000908152604090205460ff1681565b60405190151581526020015b60405180910390f35b6100b07f000000000000000000000000000000000000000000000000000000000000000081565b6040516001600160a01b039091168152602001610080565b6100db6100d63660046104af565b6100f0565b005b6100746100eb3660046104ed565b610191565b336001600160a01b037f000000000000000000000000000000000000000000000000000000000000000016146101665760405162461bcd60e51b815260206004820152601660248201527513db9b1e481c9959da5cdd1c9e4818d85b8818d85b1b60521b60448201526064015b60405180910390fd5b6001600160a01b03919091166000908152600160205260409020805460ff1916911515919091179055565b600061019b610449565b306001600160a01b031663aa92e29f6040518163ffffffff1660e01b8152600401602060405180830381865afa1580156101d9573d6000803e3d6000fd5b505050506040513d601f19601f820116820180604052508101906101fd9190610576565b6001600160a01b0316336001600160a01b03161461025d5760405162461bcd60e51b815260206004820152601960248201527f4f6e6c792061737369676e65652063616e206578656375746500000000000000604482015260640161015d565b60016040516330ccebb560e01b81523060048201527f00000000000000000000000000000000000000000000000000000000000000006001600160a01b0316906330ccebb590602401602060405180830381865afa1580156102c3573d6000803e3d6000fd5b505050506040513d601f19601f820116820180604052508101906102e791906105a9565b60038111156102f8576102f8610593565b1461033b5760405162461bcd60e51b8152602060048201526013602482015272496e76616c6964207461736b2073746174757360681b604482015260640161015d565b6001600160a01b03831660009081526001602052604090205460ff1661039a5760405162461bcd60e51b815260206004820152601460248201527315185c99d95d081b9bdd081c195c9b5a5d1d195960621b604482015260640161015d565b6000836001600160a01b03168387876040516103b79291906105ca565b60006040518083038185875af1925050503d80600081146103f4576040519150601f19603f3d011682016040523d82523d6000602084013e6103f9565b606091505b5050604051811515815290915030907f927ecc698e7293785487e40c7eb8f2aefb6abc81d77df63ab5d5c883da1df93a9060200160405180910390a290506104416001600055565b949350505050565b60026000540361046c57604051633ee5aeb560e01b815260040160405180910390fd5b6002600055565b6001600160a01b038116811461048857600080fd5b50565b60006020828403121561049d57600080fd5b81356104a881610473565b9392505050565b600080604083850312156104c257600080fd5b82356104cd81610473565b9150602083013580151581146104e257600080fd5b809150509250929050565b6000806000806060858703121561050357600080fd5b843567ffffffffffffffff8082111561051b57600080fd5b818701915087601f83011261052f57600080fd5b81358181111561053e57600080fd5b88602082850101111561055057600080fd5b6020928301965094505085013561056681610473565b9396929550929360400135925050565b60006020828403121561058857600080fd5b81516104a881610473565b634e487b7160e01b600052602160045260246000fd5b6000602082840312156105bb57600080fd5b8151600481106104a857600080fd5b818382376000910190815291905056fea26469706673582212209093633a833436d6310eb5b217d630510ae4d5734a6749131009ed24e98a769364736f6c63430008140033",
  "linkReferences": {},
  "deployedLinkReferences": {}
}