{
  "contracts/TaskRegistry.sol": {
    "TaskRegistry": {
      "abi": [
        {
          "inputs": [],
          "stateMutability": "nonpayable",
          "type": "constructor"
        },
        {
          "inputs": [
            {
              "internalType": "address",
              "name": "owner",
              "type": "address"
            }
          ],
          "name": "OwnableInvalidOwner",
          "type": "error"
        },
        {
          "inputs": [
            {
              "internalType": "address",
              "name": "account",
              "type": "address"
            }
          ],
          "name": "OwnableUnauthorizedAccount",
          "type": "error"
        },
        {
          "anonymous": false,
          "inputs": [
            {
              "indexed": true,
              "internalType": "address",
              "name": "previousOwner",
              "type": "address"
            },
            {
              "indexed": true,
              "internalType": "address",
              "name": "newOwner",
              "type": "address"
            }
          ],
          "name": "OwnershipTransferred",
          "type": "event"
        },
        {
          "anonymous": false,
          "inputs": [
            {
              "indexed": true,
              "internalType": "uint256",
              "name": "taskId",
              "type": "uint256"
            },
            {
              "indexed": true,
              "internalType": "address",
              "name": "user",
              "type": "address"
            },
            {
              "indexed": false,
              "internalType": "bool",
              "name": "allowed",
              "type": "bool"
            }
          ],
          "name": "PermissionUpdated",
          "type": "event"
        },
        {
          "anonymous": false,
          "inputs": [
            {
              "indexed": true,
              "internalType": "uint256",
              "name": "taskId",
              "type": "uint256"
            },
            {
              "indexed": true,
              "internalType": "address",
              "name": "agent",
              "type": "address"
            }
          ],
          "name": "TaskAssigned",
          "type": "event"
        },
        {
          "anonymous": false,
          "inputs": [
            {
              "indexed": true,
              "internalType": "address",
              "name": "owner",
              "type": "address"
            },
            {
              "indexed": false,
              "internalType": "uint256",
              "name": "taskId",
              "type": "uint256"
            },
            {
              "indexed": false,
              "internalType": "string",
              "name": "prompt",
              "type": "string"
            },
            {
              "indexed": false,
              "internalType": "enum TaskRegistry.TaskType",
              "name": "taskType",
              "type": "uint8"
            }
          ],
          "name": "TaskCreated",
          "type": "event"
        },
        {
          "anonymous": false,
          "inputs": [
            {
              "indexed": true,
              "internalType": "uint256",
              "name": "taskId",
              "type": "uint256"
            },
            {
              "indexed": false,
              "internalType": "enum TaskRegistry.TaskStatus",
              "name": "status",
              "type": "uint8"
            }
          ],
          "name": "TaskStatusChanged",
          "type": "event"
        },
        {
          "inputs": [
            {
              "internalType": "uint256",
              "name": "taskId",
              "type": "uint256"
            },
            {
              "internalType": "address",
              "name": "_assignee",
              "type": "address"
            }
          ],
          "name": "assignTo",
          "outputs": [],
          "stateMutability": "nonpayable",
          "type": "function"
        },
        {
          "inputs": [
            {
              "internalType": "string",
              "name": "prompt",
              "type": "string"
            },
            {
              "internalType": "enum TaskRegistry.TaskType",
              "name": "taskType",
              "type": "uint8"
            }
          ],
          "name": "createTask",
          "outputs": [
            {
              "internalType": "uint256",
              "name": "",
              "type": "uint256"
            }
          ],
          "stateMutability": "nonpayable",
          "type": "function"
        },
        {
          "inputs": [
            {
              "internalType": "uint256",
              "name": "taskId",
              "type": "uint256"
            }
          ],
          "name": "getAssignee",
          "outputs": [
            {
              "internalType": "address",
              "name": "",
              "type": "address"
            }
          ],
          "stateMutability": "view",
          "type": "function"
        },
        {
          "inputs": [
            {
              "internalType": "uint256",
              "name": "taskId",
              "type": "uint256"
            }
          ],
          "name": "getStatus",
          "outputs": [
            {
              "internalType": "enum TaskRegistry.TaskStatus",
              "name": "",
              "type": "uint8"
            }
          ],
          "stateMutability": "view",
          "type": "function"
        },
        {
          "inputs": [
            {
              "internalType": "address",
              "name": "owner",
              "type": "address"
            }
          ],
          "name": "getTasksByOwner",
          "outputs": [
            {
              "internalType": "uint256[]",
              "name": "",
              "type": "uint256[]"
            }
          ],
          "stateMutability": "view",
          "type": "function"
        },
        {
          "inputs": [],
          "name": "owner",
          "outputs": [
            {
              "internalType": "address",
              "name": "",
              "type": "address"
            }
          ],
          "stateMutability": "view",
          "type": "function"
        },
        {
          "inputs": [
            {
              "internalType": "address",
              "name": "",
              "type": "address"
            },
            {
              "internalType": "uint256",
              "name": "",
              "type": "uint256"
            }
          ],
          "name": "ownerTasks",
          "outputs": [
            {
              "internalType": "uint256",
              "name": "",
              "type": "uint256"
            }
          ],
          "stateMutability": "view",
          "type": "function"
        },
        {
          "inputs": [],
          "name": "renounceOwnership",
          "outputs": [],
          "stateMutability": "nonpayable",
          "type": "function"
        },
        {
          "inputs": [
            {
              "internalType": "uint256",
              "name": "taskId",
              "type": "uint256"
            },
            {
              "internalType": "address",
              "name": "user",
              "type": "address"
            },
            {
              "internalType": "bool",
              "name": "allowed",
              "type": "bool"
            }
          ],
          "name": "setPermission",
          "outputs": [],
          "stateMutability": "nonpayable",
          "type": "function"
        },
        {
          "inputs": [
            {
              "internalType": "uint256",
              "name": "",
              "type": "uint256"
            }
          ],
          "name": "tasks",
          "outputs": [
            {
              "internalType": "uint256",
              "name": "id",
              "type": "uint256"
            },
            {
              "internalType": "string",
              "name": "prompt",
              "type": "string"
            },
            {
              "internalType": "enum TaskRegistry.TaskType",
              "name": "taskType",
              "type": "uint8"
            },
            {
              "internalType": "address",
              "name": "owner",
              "type": "address"
            },
            {
              "internalType": "enum TaskRegistry.TaskStatus",
              "name": "status",
              "type": "uint8"
            },
            {
              "internalType": "address",
              "name": "assignee",
              "type": "address"
            }
          ],
          "stateMutability": "view",
          "type": "function"
        },
        {
          "inputs": [
            {
              "internalType": "address",
              "name": "newOwner",
              "type": "address"
            }
          ],
          "name": "transferOwnership",
          "outputs": [],
          "stateMutability": "nonpayable",
          "type": "function"
        },
        {
          "inputs": [
            {
              "internalType": "uint256",
              "name": "taskId",
              "type": "uint256"
            },
            {
              "internalType": "enum TaskRegistry.TaskStatus",
              "name": "newStatus",
              "type": "uint8"
            }
          ],
          "name": "updateTaskStatus",
          "outputs": [],
          "stateMutability": "nonpayable",
          "type": "function"
        }
      ],
      "evm": {
        "bytecode": {
          "linkReferences": {},
          "object": "608060405234801561001057600080fd5b50338061003757604051631e4fbdf760e01b81526000600482015260240160405180910390fd5b61004081610046565b50610096565b600080546001600160a01b038381166001600160a01b0319831681178455604051919092169283917f8be0079c531659141344cd1fd0a4f28419497f9722a3daafe3b4186f6b6457e09190a35050565b610d32806100a56000396000f3fe608060405234801561001057600080fd5b50600436106100b45760003560e01c80638da5cb5b116100715780638da5cb5b1461019f578063ab9b6811146101b0578063df262fde146101c3578063e42891ea146101d6578063f0f39ce4146101e9578063f2fde38b1461020957600080fd5b806303d5489a146100b957806307b31818146100df5780635ba0d8d7146101235780635c622a0e14610136578063715018a6146101705780638d9776721461017a575b600080fd5b6100cc6100c7366004610849565b61021c565b6040519081526020015b60405180910390f35b61010b6100ed366004610873565b6000908152600160205260409020600301546001600160a01b031690565b6040516001600160a01b0390911681526020016100d6565b6100cc6101313660046108b1565b61024d565b610163610144366004610873565b600090815260016020526040902060020154600160a81b900460ff1690565b6040516100d6919061099d565b610178610365565b005b61018d610188366004610873565b610379565b6040516100d696959493929190610a01565b6000546001600160a01b031661010b565b6101786101be366004610a5a565b61044b565b6101786101d1366004610a8e565b6104ca565b6101786101e4366004610ad3565b610594565b6101fc6101f7366004610af6565b610706565b6040516100d69190610b18565b610178610217366004610af6565b610772565b6002602052816000526040600020818154811061023857600080fd5b90600052602060002001600091509150505481565b600380546000918261025e83610b5c565b9091555050600354600081815260016020819052604090912091825581016102868582610c0c565b50828160020160006101000a81548160ff021916908360028111156102ad576102ad610973565b021790555060028181018054610100600160b01b03191633610100810260ff60a81b1916919091179091553060009081526004840160209081526040808320805460ff191660019081179091558484529482528083206003805482549788018355918552929093209094019190915554915190917f11bf9052a16c87f04a83790b4d680f3b44d08b95faa466d9dfead8393806cc2991610351919088908890610ccc565b60405180910390a250506003545b92915050565b61036d6107b0565b61037760006107dd565b565b60016020819052600091825260409091208054918101805461039a90610b83565b80601f01602080910402602001604051908101604052809291908181526020018280546103c690610b83565b80156104135780601f106103e857610100808354040283529160200191610413565b820191906000526020600020905b8154815290600101906020018083116103f657829003601f168201915b5050506002840154600390940154929360ff808216946001600160a01b03610100840481169550600160a81b90930490911692501686565b6104536107b0565b600082815260016020526040902060028101805483919060ff60a81b1916600160a81b83600381111561048857610488610973565b0217905550827fd76ef80cfb1ce0c70d0cbc0ab1b9f2f298a78f9fca5c841be963ae9a5d721bb4836040516104bd919061099d565b60405180910390a2505050565b6000838152600160205260409020600281015461010090046001600160a01b0316331461052f5760405162461bcd60e51b815260206004820152600e60248201526d139bdd08185d5d1a1bdc9a5e995960921b60448201526064015b60405180910390fd5b6001600160a01b0383166000818152600483016020908152604091829020805460ff1916861515908117909155915191825286917f412cc27073bf042a9c439eb5c3ed8fb26c5331cfc0b66c4d5b8321657c3966ed910160405180910390a350505050565b6000828152600160205260409020600281015461010090046001600160a01b03163314806105d3575033600090815260048201602052604090205460ff165b6106105760405162461bcd60e51b815260206004820152600e60248201526d139bdd08185d5d1a1bdc9a5e995960921b6044820152606401610526565b60006002820154600160a81b900460ff16600381111561063257610632610973565b146106755760405162461bcd60e51b8152602060048201526013602482015272496e76616c6964207461736b2073746174757360681b6044820152606401610526565b6003810180546001600160a01b0319166001600160a01b03841690811790915560028201805460ff60a81b1916600160a81b17905560405184907f52476d55ecef5cf13caa64038f297fe6bbf865d9584a98b8722a15a6d5db128f90600090a3827fd76ef80cfb1ce0c70d0cbc0ab1b9f2f298a78f9fca5c841be963ae9a5d721bb460016040516104bd919061099d565b6001600160a01b03811660009081526002602090815260409182902080548351818402810184019094528084526060939283018282801561076657602002820191906000526020600020905b815481526020019060010190808311610752575b50505050509050919050565b61077a6107b0565b6001600160a01b0381166107a457604051631e4fbdf760e01b815260006004820152602401610526565b6107ad816107dd565b50565b6000546001600160a01b031633146103775760405163118cdaa760e01b8152336004820152602401610526565b600080546001600160a01b038381166001600160a01b0319831681178455604051919092169283917f8be0079c531659141344cd1fd0a4f28419497f9722a3daafe3b4186f6b6457e09190a35050565b80356001600160a01b038116811461084457600080fd5b919050565b6000806040838503121561085c57600080fd5b6108658361082d565b946020939093013593505050565b60006020828403121561088557600080fd5b5035919050565b634e487b7160e01b600052604160045260246000fd5b80356003811061084457600080fd5b600080604083850312156108c457600080fd5b823567ffffffffffffffff808211156108dc57600080fd5b818501915085601f8301126108f057600080fd5b8135818111156109025761090261088c565b604051601f8201601f19908116603f0116810190838211818310171561092a5761092a61088c565b8160405282815288602084870101111561094357600080fd5b82602086016020830137600060208483010152809650505050505061096a602084016108a2565b90509250929050565b634e487b7160e01b600052602160045260246000fd5b6004811061099957610999610973565b9052565b6020810161035f8284610989565b6000815180845260005b818110156109d1576020818501810151868301820152016109b5565b506000602082860101526020601f19601f83011685010191505092915050565b6003811061099957610999610973565b86815260c060208201526000610a1a60c08301886109ab565b9050610a2960408301876109f1565b6001600160a01b038581166060840152610a466080840186610989565b80841660a084015250979650505050505050565b60008060408385031215610a6d57600080fd5b82359150602083013560048110610a8357600080fd5b809150509250929050565b600080600060608486031215610aa357600080fd5b83359250610ab36020850161082d565b915060408401358015158114610ac857600080fd5b809150509250925092565b60008060408385031215610ae657600080fd5b8235915061096a6020840161082d565b600060208284031215610b0857600080fd5b610b118261082d565b9392505050565b6020808252825182820181905260009190848201906040850190845b81811015610b5057835183529284019291840191600101610b34565b50909695505050505050565b600060018201610b7c57634e487b7160e01b600052601160045260246000fd5b5060010190565b600181811c90821680610b9757607f821691505b602082108103610bb757634e487b7160e01b600052602260045260246000fd5b50919050565b601f821115610c0757600081815260208120601f850160051c81016020861015610be45750805b601f850160051c820191505b81811015610c0357828155600101610bf0565b5050505b505050565b815167ffffffffffffffff811115610c2657610c2661088c565b610c3a81610c348454610b83565b84610bbd565b602080601f831160018114610c6f5760008415610c575750858301515b600019600386901b1c1916600185901b178555610c03565b600085815260208120601f198616915b82811015610c9e57888601518255948401946001909101908401610c7f565b5085821015610cbc5787850151600019600388901b60f8161c191681555b5050505050600190811b01905550565b838152606060208201526000610ce560608301856109ab565b9050610cf460408301846109f1565b94935050505056fea2646970667358221220f200271b6c545f95d4aa91c51140f17178ff704272dce713d415df48bad00b8a64736f6c63430008140033",
          "opcodes": "PUSH1 0x80 PUSH1 0x40 MSTORE CALLVALUE DUP1 ISZERO PUSH2 0x10 JUMPI PUSH1 0x0 DUP1 REVERT JUMPDEST POP CALLER DUP1 PUSH2 0x37 JUMPI PUSH1 0x40 MLOAD PUSH4 0x1E4FBDF7 PUSH1 0xE0 SHL DUP2 MSTORE PUSH1 0x0 PUSH1 0x4 DUP3 ADD MSTORE PUSH1 0x24 ADD PUSH1 0x40 MLOAD DUP1 SWAP2 SUB SWAP1 REVERT JUMPDEST PUSH2 0x40 DUP2 PUSH2 0x46 JUMP JUMPDEST POP PUSH2 0x96 JUMP JUMPDEST PUSH1 0x0 DUP1 SLOAD PUSH1 0x1 PUSH1 0x1 PUSH1 0xA0 SHL SUB DUP4 DUP2 AND PUSH1 0x1 PUSH1 0x1 PUSH1 0xA0 SHL SUB NOT DUP4 AND DUP2 OR DUP5 SSTORE PUSH1 0x40 MLOAD SWAP2 SWAP1 SWAP3 AND SWAP3 DUP4 SWAP2 PUSH32 0x8BE0079C531659141344CD1FD0A4F28419497F9722A3DAAFE3B4186F6B6457E0 SWAP2 SWAP1 LOG3 POP POP JUMP JUMPDEST PUSH2 0xD32 DUP1 PUSH2 0xA5 PUSH1 0x0 CODECOPY PUSH1 0x0 RETURN INVALID PUSH1 0x80 PUSH1 0x40 MSTORE CALLVALUE DUP1 ISZERO PUSH2 0x10 JUMPI PUSH1 0x0 DUP1 REVERT JUMPDEST POP PUSH1 0x4 CALLDATASIZE LT PUSH2 0xB4 JUMPI PUSH1 0x0 CALLDATALOAD PUSH1 0xE0 SHR DUP1 PUSH4 0x8DA5CB5B GT PUSH2 0x71 JUMPI DUP1 PUSH4 0x8DA5CB5B EQ PUSH2 0x19F JUMPI DUP1 PUSH4 0xAB9B6811 EQ PUSH2 0x1B0 JUMPI DUP1 PUSH4 0xDF262FDE EQ PUSH2 0x1C3 JUMPI DUP1 PUSH4 0xE42891EA EQ PUSH2 0x1D6 JUMPI DUP1 PUSH4 0xF0F39CE4 EQ PUSH2 0x1E9 JUMPI DUP1 PUSH4 0xF2FDE38B EQ PUSH2 0x209 JUMPI PUSH1 0x0 DUP1 REVERT JUMPDEST DUP1 PUSH4 0x3D5489A EQ PUSH2 0xB9 JUMPI DUP1 PUSH4 0x7B31818 EQ PUSH2 0xDF JUMPI DUP1 PUSH4 0x5BA0D8D7 EQ PUSH2 0x123 JUMPI DUP1 PUSH4 0x5C622A0E EQ PUSH2 0x136 JUMPI DUP1 PUSH4 0x715018A6 EQ PUSH2 0x170 JUMPI DUP1 PUSH4 0x8D977672 EQ PUSH2 0x17A JUMPI JUMPDEST PUSH1 0x0 DUP1 REVERT JUMPDEST PUSH2 0xCC PUSH2 0xC7 CALLDATASIZE PUSH1 0x4 PUSH2 0x849 JUMP JUMPDEST PUSH2 0x21C JUMP JUMPDEST PUSH1 0x40 MLOAD SWAP1 DUP2 MSTORE PUSH1 0x20 ADD JUMPDEST PUSH1 0x40 MLOAD DUP1 SWAP2 SUB SWAP1 RETURN JUMPDEST PUSH2 0x10B PUSH2 0xED CALLDATASIZE PUSH1 0x4 PUSH2 0x873 JUMP JUMPDEST PUSH1 0x0 SWAP1 DUP2 MSTORE PUSH1 0x1 PUSH1 0x20 MSTORE PUSH1 0x40 SWAP1 KECCAK256 PUSH1 0x3 ADD SLOAD PUSH1 0x1 PUSH1 0x1 PUSH1 0xA0 SHL SUB AND SWAP1 JUMP JUMPDEST PUSH1 0x40 MLOAD PUSH1 0x1 PUSH1 0x1 PUSH1 0xA0 SHL SUB SWAP1 SWAP2 AND DUP2 MSTORE PUSH1 0x20 ADD PUSH2 0xD6 JUMP JUMPDEST PUSH2 0xCC PUSH2 0x131 CALLDATASIZE PUSH1 0x4 PUSH2 0x8B1 JUMP JUMPDEST PUSH2 0x24D JUMP JUMPDEST PUSH2 0x163 PUSH2 0x144 CALLDATASIZE PUSH1 0x4 PUSH2 0x873 JUMP JUMPDEST PUSH1 0x0 SWAP1 DUP2 MSTORE PUSH1 0x1 PUSH1 0x20 MSTORE PUSH1 0x40 SWAP1 KECCAK256 PUSH1 0x2 ADD SLOAD PUSH1 0x1 PUSH1 0xA8 SHL SWAP1 DIV PUSH1 0xFF AND SWAP1 JUMP JUMPDEST PUSH1 0x40 MLOAD PUSH2 0xD6 SWAP2 SWAP1 PUSH2 0x99D JUMP JUMPDEST PUSH2 0x178 PUSH2 0x365 JUMP JUMPDEST STOP JUMPDEST PUSH2 0x18D PUSH2 0x188 CALLDATASIZE PUSH1 0x4 PUSH2 0x873 JUMP JUMPDEST PUSH2 0x379 JUMP JUMPDEST PUSH1 0x40 MLOAD PUSH2 0xD6 SWAP7 SWAP6 SWAP5 SWAP4 SWAP3 SWAP2 SWAP1 PUSH2 0xA01 JUMP JUMPDEST PUSH1 0x0 SLOAD PUSH1 0x1 PUSH1 0x1 PUSH1 0xA0 SHL SUB AND PUSH2 0x10B JUMP JUMPDEST PUSH2 0x178 PUSH2 0x1BE CALLDATASIZE PUSH1 0x4 PUSH2 0xA5A JUMP JUMPDEST PUSH2 0x44B JUMP JUMPDEST PUSH2 0x178 PUSH2 0x1D1 CALLDATASIZE PUSH1 0x4 PUSH2 0xA8E JUMP JUMPDEST PUSH2 0x4CA JUMP JUMPDEST PUSH2 0x178 PUSH2 0x1E4 CALLDATASIZE PUSH1 0x4 PUSH2 0xAD3 JUMP JUMPDEST PUSH2 0x594 JUMP JUMPDEST PUSH2 0x1FC PUSH2 0x1F7 CALLDATASIZE PUSH1 0x4 PUSH2 0xAF6 JUMP JUMPDEST PUSH2 0x706 JUMP JUMPDEST PUSH1 0x40 MLOAD PUSH2 0xD6 SWAP2 SWAP1 PUSH2 0xB18 JUMP JUMPDEST PUSH2 0x178 PUSH2 0x217 CALLDATASIZE PUSH1 0x4 PUSH2 0xAF6 JUMP JUMPDEST PUSH2 0x772 JUMP JUMPDEST PUSH1 0x2 PUSH1 0x20 MSTORE DUP2 PUSH1 0x0 MSTORE PUSH1 0x40 PUSH1 0x0 KECCAK256 DUP2 DUP2 SLOAD DUP2 LT PUSH2 0x238 JUMPI PUSH1 0x0 DUP1 REVERT JUMPDEST SWAP1 PUSH1 0x0 MSTORE PUSH1 0x20 PUSH1 0x0 KECCAK256 ADD PUSH1 0x0 SWAP2 POP SWAP2 POP POP SLOAD DUP2 JUMP JUMPDEST PUSH1 0x3 DUP1 SLOAD PUSH1 0x0 SWAP2 DUP3 PUSH2 0x25E DUP4 PUSH2 0xB5C JUMP JUMPDEST SWAP1 SWAP2 SSTORE POP POP PUSH1 0x3 SLOAD PUSH1 0x0 DUP2 DUP2 MSTORE PUSH1 0x1 PUSH1 0x20 DUP2 SWAP1 MSTORE PUSH1 0x40 SWAP1 SWAP2 KECCAK256 SWAP2 DUP3 SSTORE DUP2 ADD PUSH2 0x286 DUP6 DUP3 PUSH2 0xC0C JUMP JUMPDEST POP DUP3 DUP2 PUSH1 0x2 ADD PUSH1 0x0 PUSH2 0x100 EXP DUP2 SLOAD DUP2 PUSH1 0xFF MUL NOT AND SWAP1 DUP4 PUSH1 0x2 DUP2 GT ISZERO PUSH2 0x2AD JUMPI PUSH2 0x2AD PUSH2 0x973 JUMP JUMPDEST MUL OR SWAP1 SSTORE POP PUSH1 0x2 DUP2 DUP2 ADD DUP1 SLOAD PUSH2 0x100 PUSH1 0x1 PUSH1 0xB0 SHL SUB NOT AND CALLER PUSH2 0x100 DUP2 MUL PUSH1 0xFF PUSH1 0xA8 SHL NOT AND SWAP2 SWAP1 SWAP2 OR SWAP1 SWAP2 SSTORE ADDRESS PUSH1 0x0 SWAP1 DUP2 MSTORE PUSH1 0x4 DUP5 ADD PUSH1 0x20 SWAP1 DUP2 MSTORE PUSH1 0x40 DUP1 DUP4 KECCAK256 DUP1 SLOAD PUSH1 0xFF NOT AND PUSH1 0x1 SWAP1 DUP2 OR SWAP1 SWAP2 SSTORE DUP5 DUP5 MSTORE SWAP5 DUP3 MSTORE DUP1 DUP4 KECCAK256 PUSH1 0x3 DUP1 SLOAD DUP3 SLOAD SWAP8 DUP9 ADD DUP4 SSTORE SWAP2 DUP6 MSTORE SWAP3 SWAP1 SWAP4 KECCAK256 SWAP1 SWAP5 ADD SWAP2 SWAP1 SWAP2 SSTORE SLOAD SWAP2 MLOAD SWAP1 SWAP2 PUSH32 0x11BF9052A16C87F04A83790B4D680F3B44D08B95FAA466D9DFEAD8393806CC29 SWAP2 PUSH2 0x351 SWAP2 SWAP1 DUP9 SWAP1 DUP9 SWAP1 PUSH2 0xCCC JUMP JUMPDEST PUSH1 0x40 MLOAD DUP1 SWAP2 SUB SWAP1 LOG2 POP POP PUSH1 0x3 SLOAD JUMPDEST SWAP3 SWAP2 POP POP JUMP JUMPDEST PUSH2 0x36D PUSH2 0x7B0 JUMP JUMPDEST PUSH2 0x377 PUSH1 0x0 PUSH2 0x7DD JUMP JUMPDEST JUMP JUMPDEST PUSH1 0x1 PUSH1 0x20 DUP2 SWAP1 MSTORE PUSH1 0x0 SWAP2 DUP3 MSTORE PUSH1 0x40 SWAP1 SWAP2 KECCAK256 DUP1 SLOAD SWAP2 DUP2 ADD DUP1 SLOAD PUSH2 0x39A SWAP1 PUSH2 0xB83 JUMP JUMPDEST DUP1 PUSH1 0x1F ADD PUSH1 0x20 DUP1 SWAP2 DIV MUL PUSH1 0x20 ADD PUSH1 0x40 MLOAD SWAP1 DUP2 ADD PUSH1 0x40 MSTORE DUP1 SWAP3 SWAP2 SWAP1 DUP2 DUP2 MSTORE PUSH1 0x20 ADD DUP3 DUP1 SLOAD PUSH2 0x3C6 SWAP1 PUSH2 0xB83 JUMP JUMPDEST DUP1 ISZERO PUSH2 0x413 JUMPI DUP1 PUSH1 0x1F LT PUSH2 0x3E8 JUMPI PUSH2 0x100 DUP1 DUP4 SLOAD DIV MUL DUP4 MSTORE SWAP2 PUSH1 0x20 ADD SWAP2 PUSH2 0x413 JUMP JUMPDEST DUP3 ADD SWAP2 SWAP1 PUSH1 0x0 MSTORE PUSH1 0x20 PUSH1 0x0 KECCAK256 SWAP1 JUMPDEST DUP2 SLOAD DUP2 MSTORE SWAP1 PUSH1 0x1 ADD SWAP1 PUSH1 0x20 ADD DUP1 DUP4 GT PUSH2 0x3F6 JUMPI DUP3 SWAP1 SUB PUSH1 0x1F AND DUP3 ADD SWAP2 JUMPDEST POP POP POP PUSH1 0x2 DUP5 ADD SLOAD PUSH1 0x3 SWAP1 SWAP5 ADD SLOAD SWAP3 SWAP4 PUSH1 0xFF DUP1 DUP3 AND SWAP5 PUSH1 0x1 PUSH1 0x1 PUSH1 0xA0 SHL SUB PUSH2 0x100 DUP5 DIV DUP2 AND SWAP6 POP PUSH1 0x1 PUSH1 0xA8 SHL SWAP1 SWAP4 DIV SWAP1 SWAP2 AND SWAP3 POP AND DUP7 JUMP JUMPDEST PUSH2 0x453 PUSH2 0x7B0 JUMP JUMPDEST PUSH1 0x0 DUP3 DUP2 MSTORE PUSH1 0x1 PUSH1 0x20 MSTORE PUSH1 0x40 SWAP1 KECCAK256 PUSH1 0x2 DUP2 ADD DUP1 SLOAD DUP4 SWAP2 SWAP1 PUSH1 0xFF PUSH1 0xA8 SHL NOT AND PUSH1 0x1 PUSH1 0xA8 SHL DUP4 PUSH1 0x3 DUP2 GT ISZERO PUSH2 0x488 JUMPI PUSH2 0x488 PUSH2 0x973 JUMP JUMPDEST MUL OR SWAP1 SSTORE POP DUP3 PUSH32 0xD76EF80CFB1CE0C70D0CBC0AB1B9F2F298A78F9FCA5C841BE963AE9A5D721BB4 DUP4 PUSH1 0x40 MLOAD PUSH2 0x4BD SWAP2 SWAP1 PUSH2 0x99D JUMP JUMPDEST PUSH1 0x40 MLOAD DUP1 SWAP2 SUB SWAP1 LOG2 POP POP POP JUMP JUMPDEST PUSH1 0x0 DUP4 DUP2 MSTORE PUSH1 0x1 PUSH1 0x20 MSTORE PUSH1 0x40 SWAP1 KECCAK256 PUSH1 0x2 DUP2 ADD SLOAD PUSH2 0x100 SWAP1 DIV PUSH1 0x1 PUSH1 0x1 PUSH1 0xA0 SHL SUB AND CALLER EQ PUSH2 0x52F JUMPI PUSH1 0x40 MLOAD PUSH3 0x461BCD PUSH1 0xE5 SHL DUP2 MSTORE PUSH1 0x20 PUSH1 0x4 DUP3 ADD MSTORE PUSH1 0xE PUSH1 0x24 DUP3 ADD MSTORE PUSH14 0x139BDD08185D5D1A1BDC9A5E9959 PUSH1 0x92 SHL PUSH1 0x44 DUP3 ADD MSTORE PUSH1 0x64 ADD JUMPDEST PUSH1 0x40 MLOAD DUP1 SWAP2 SUB SWAP1 REVERT JUMPDEST PUSH1 0x1 PUSH1 0x1 PUSH1 0xA0 SHL SUB DUP4 AND PUSH1 0x0 DUP2 DUP2 MSTORE PUSH1 0x4 DUP4 ADD PUSH1 0x20 SWAP1 DUP2 MSTORE PUSH1 0x40 SWAP2 DUP3 SWAP1 KECCAK256 DUP1 SLOAD PUSH1 0xFF NOT AND DUP7 ISZERO ISZERO SWAP1 DUP2 OR SWAP1 SWAP2 SSTORE SWAP2 MLOAD SWAP2 DUP3 MSTORE DUP7 SWAP2 PUSH32 0x412CC27073BF042A9C439EB5C3ED8FB26C5331CFC0B66C4D5B8321657C3966ED SWAP2 ADD PUSH1 0x40 MLOAD DUP1 SWAP2 SUB SWAP1 LOG3 POP POP POP POP JUMP JUMPDEST PUSH1 0x0 DUP3 DUP2 MSTORE PUSH1 0x1 PUSH1 0x20 MSTORE PUSH1 0x40 SWAP1 KECCAK256 PUSH1 0x2 DUP2 ADD SLOAD PUSH2 0x100 SWAP1 DIV PUSH1 0x1 PUSH1 0x1 PUSH1 0xA0 SHL SUB AND CALLER EQ DUP1 PUSH2 0x5D3 JUMPI POP CALLER PUSH1 0x0 SWAP1 DUP2 MSTORE PUSH1 0x4 DUP3 ADD PUSH1 0x20 MSTORE PUSH1 0x40 SWAP1 KECCAK256 SLOAD PUSH1 0xFF AND JUMPDEST PUSH2 0x610 JUMPI PUSH1 0x40 MLOAD PUSH3 0x461BCD PUSH1 0xE5 SHL DUP2 MSTORE PUSH1 0x20 PUSH1 0x4 DUP3 ADD MSTORE PUSH1 0xE PUSH1 0x24 DUP3 ADD MSTORE PUSH14 0x139BDD08185D5D1A1BDC9A5E9959 PUSH1 0x92 SHL PUSH1 0x44 DUP3 ADD MSTORE PUSH1 0x64 ADD PUSH2 0x526 JUMP JUMPDEST PUSH1 0x0 PUSH1 0x2 DUP3 ADD SLOAD PUSH1 0x1 PUSH1 0xA8 SHL SWAP1 DIV PUSH1 0xFF AND PUSH1 0x3 DUP2 GT ISZERO PUSH2 0x632 JUMPI PUSH2 0x632 PUSH2 0x973 JUMP JUMPDEST EQ PUSH2 0x675 JUMPI PUSH1 0x40 MLOAD PUSH3 0x461BCD PUSH1 0xE5 SHL DUP2 MSTORE PUSH1 0x20 PUSH1 0x4 DUP3 ADD MSTORE PUSH1 0x13 PUSH1 0x24 DUP3 ADD MSTORE PUSH19 0x496E76616C6964207461736B20737461747573 PUSH1 0x68 SHL PUSH1 0x44 DUP3 ADD MSTORE PUSH1 0x64 ADD PUSH2 0x526 JUMP JUMPDEST PUSH1 0x3 DUP2 ADD DUP1 SLOAD PUSH1 0x1 PUSH1 0x1 PUSH1 0xA0 SHL SUB NOT AND PUSH1 0x1 PUSH1 0x1 PUSH1 0xA0 SHL SUB DUP5 AND SWAP1 DUP2 OR SWAP1 SWAP2 SSTORE PUSH1 0x2 DUP3 ADD DUP1 SLOAD PUSH1 0xFF PUSH1 0xA8 SHL NOT AND PUSH1 0x1 PUSH1 0xA8 SHL OR SWAP1 SSTORE PUSH1 0x40 MLOAD DUP5 SWAP1 PUSH32 0x52476D55ECEF5CF13CAA64038F297FE6BBF865D9584A98B8722A15A6D5DB128F SWAP1 PUSH1 0x0 SWAP1 LOG3 DUP3 PUSH32 0xD76EF80CFB1CE0C70D0CBC0AB1B9F2F298A78F9FCA5C841BE963AE9A5D721BB4 PUSH1 0x1 PUSH1 0x40 MLOAD PUSH2 0x4BD SWAP2 SWAP1 PUSH2 0x99D JUMP JUMPDEST PUSH1 0x1 PUSH1 0x1 PUSH1 0xA0 SHL SUB DUP2 AND PUSH1 0x0 SWAP1 DUP2 MSTORE PUSH1 0x2 PUSH1 0x20 SWAP1 DUP2 MSTORE PUSH1 0x40 SWAP2 DUP3 SWAP1 KECCAK256 DUP1 SLOAD DUP4 MLOAD DUP2 DUP5 MUL DUP2 ADD DUP5 ADD SWAP1 SWAP5 MSTORE DUP1 DUP5 MSTORE PUSH1 0x60 SWAP4 SWAP3 DUP4 ADD DUP3 DUP3 DUP1 ISZERO PUSH2 0x766 JUMPI PUSH1 0x20 MUL DUP3 ADD SWAP2 SWAP1 PUSH1 0x0 MSTORE PUSH1 0x20 PUSH1 0x0 KECCAK256 SWAP1 JUMPDEST DUP2 SLOAD DUP2 MSTORE PUSH1 0x20 ADD SWAP1 PUSH1 0x1 ADD SWAP1 DUP1 DUP4 GT PUSH2 0x752 JUMPI JUMPDEST POP POP POP POP POP SWAP1 POP SWAP2 SWAP1 POP JUMP JUMPDEST PUSH2 0x77A PUSH2 0x7B0 JUMP JUMPDEST PUSH1 0x1 PUSH1 0x1 PUSH1 0xA0 SHL SUB DUP2 AND PUSH2 0x7A4 JUMPI PUSH1 0x40 MLOAD PUSH4 0x1E4FBDF7 PUSH1 0xE0 SHL DUP2 MSTORE PUSH1 0x0 PUSH1 0x4 DUP3 ADD MSTORE PUSH1 0x24 ADD PUSH2 0x526 JUMP JUMPDEST PUSH2 0x7AD DUP2 PUSH2 0x7DD JUMP JUMPDEST POP JUMP JUMPDEST PUSH1 0x0 SLOAD PUSH1 0x1 PUSH1 0x1 PUSH1 0xA0 SHL SUB AND CALLER EQ PUSH2 0x377 JUMPI PUSH1 0x40 MLOAD PUSH4 0x118CDAA7 PUSH1 0xE0 SHL DUP2 MSTORE CALLER PUSH1 0x4 DUP3 ADD MSTORE PUSH1 0x24 ADD PUSH2 0x526 JUMP JUMPDEST PUSH1 0x0 DUP1 SLOAD PUSH1 0x1 PUSH1 0x1 PUSH1 0xA0 SHL SUB DUP4 DUP2 AND PUSH1 0x1 PUSH1 0x1 PUSH1 0xA0 SHL SUB NOT DUP4 AND DUP2 OR DUP5 SSTORE PUSH1 0x40 MLOAD SWAP2 SWAP1 SWAP3 AND SWAP3 DUP4 SWAP2 PUSH32 0x8BE0079C531659141344CD1FD0A4F28419497F9722A3DAAFE3B4186F6B6457E0 SWAP2 SWAP1 LOG3 POP POP JUMP JUMPDEST DUP1 CALLDATALOAD PUSH1 0x1 PUSH1 0x1 PUSH1 0xA0 SHL SUB DUP2 AND DUP2 EQ PUSH2 0x844 JUMPI PUSH1 0x0 DUP1 REVERT JUMPDEST SWAP2 SWAP1 POP JUMP JUMPDEST PUSH1 0x0 DUP1 PUSH1 0x40 DUP4 DUP6 SUB SLT ISZERO PUSH2 0x85C JUMPI PUSH1 0x0 DUP1 REVERT JUMPDEST PUSH2 0x865 DUP4 PUSH2 0x82D JUMP JUMPDEST SWAP5 PUSH1 0x20 SWAP4 SWAP1 SWAP4 ADD CALLDATALOAD SWAP4 POP POP POP JUMP JUMPDEST PUSH1 0x0 PUSH1 0x20 DUP3 DUP5 SUB SLT ISZERO PUSH2 0x885 JUMPI PUSH1 0x0 DUP1 REVERT JUMPDEST POP CALLDATALOAD SWAP2 SWAP1 POP JUMP JUMPDEST PUSH4 0x4E487B71 PUSH1 0xE0 SHL PUSH1 0x0 MSTORE PUSH1 0x41 PUSH1 0x4 MSTORE PUSH1 0x24 PUSH1 0x0 REVERT JUMPDEST DUP1 CALLDATALOAD PUSH1 0x3 DUP2 LT PUSH2 0x844 JUMPI PUSH1 0x0 DUP1 REVERT JUMPDEST PUSH1 0x0 DUP1 PUSH1 0x40 DUP4 DUP6 SUB SLT ISZERO PUSH2 0x8C4 JUMPI PUSH1 0x0 DUP1 REVERT JUMPDEST DUP3 CALLDATALOAD PUSH8 0xFFFFFFFFFFFFFFFF DUP1 DUP3 GT ISZERO PUSH2 0x8DC JUMPI PUSH1 0x0 DUP1 REVERT JUMPDEST DUP2 DUP6 ADD SWAP2 POP DUP6 PUSH1 0x1F DUP4 ADD SLT PUSH2 0x8F0 JUMPI PUSH1 0x0 DUP1 REVERT JUMPDEST DUP2 CALLDATALOAD DUP2 DUP2 GT ISZERO PUSH2 0x902 JUMPI PUSH2 0x902 PUSH2 0x88C JUMP JUMPDEST PUSH1 0x40 MLOAD PUSH1 0x1F DUP3 ADD PUSH1 0x1F NOT SWAP1 DUP2 AND PUSH1 0x3F ADD AND DUP2 ADD SWAP1 DUP4 DUP3 GT DUP2 DUP4 LT OR ISZERO PUSH2 0x92A JUMPI PUSH2 0x92A PUSH2 0x88C JUMP JUMPDEST DUP2 PUSH1 0x40 MSTORE DUP3 DUP2 MSTORE DUP9 PUSH1 0x20 DUP5 DUP8 ADD ADD GT ISZERO PUSH2 0x943 JUMPI PUSH1 0x0 DUP1 REVERT JUMPDEST DUP3 PUSH1 0x20 DUP7 ADD PUSH1 0x20 DUP4 ADD CALLDATACOPY PUSH1 0x0 PUSH1 0x20 DUP5 DUP4 ADD ADD MSTORE DUP1 SWAP7 POP POP POP POP POP POP PUSH2 0x96A PUSH1 0x20 DUP5 ADD PUSH2 0x8A2 JUMP JUMPDEST SWAP1 POP SWAP3 POP SWAP3 SWAP1 POP JUMP JUMPDEST PUSH4 0x4E487B71 PUSH1 0xE0 SHL PUSH1 0x0 MSTORE PUSH1 0x21 PUSH1 0x4 MSTORE PUSH1 0x24 PUSH1 0x0 REVERT JUMPDEST PUSH1 0x4 DUP2 LT PUSH2 0x999 JUMPI PUSH2 0x999 PUSH2 0x973 JUMP JUMPDEST SWAP1 MSTORE JUMP JUMPDEST PUSH1 0x20 DUP2 ADD PUSH2 0x35F DUP3 DUP5 PUSH2 0x989 JUMP JUMPDEST PUSH1 0x0 DUP2 MLOAD DUP1 DUP5 MSTORE PUSH1 0x0 JUMPDEST DUP2 DUP2 LT ISZERO PUSH2 0x9D1 JUMPI PUSH1 0x20 DUP2 DUP6 ADD DUP2 ADD MLOAD DUP7 DUP4 ADD DUP3 ADD MSTORE ADD PUSH2 0x9B5 JUMP JUMPDEST POP PUSH1 0x0 PUSH1 0x20 DUP3 DUP7 ADD ADD MSTORE PUSH1 0x20 PUSH1 0x1F NOT PUSH1 0x1F DUP4 ADD AND DUP6 ADD ADD SWAP2 POP POP SWAP3 SWAP2 POP POP JUMP JUMPDEST PUSH1 0x3 DUP2 LT PUSH2 0x999 JUMPI PUSH2 0x999 PUSH2 0x973 JUMP JUMPDEST DUP7 DUP2 MSTORE PUSH1 0xC0 PUSH1 0x20 DUP3 ADD MSTORE PUSH1 0x0 PUSH2 0xA1A PUSH1 0xC0 DUP4 ADD DUP9 PUSH2 0x9AB JUMP JUMPDEST SWAP1 POP PUSH2 0xA29 PUSH1 0x40 DUP4 ADD DUP8 PUSH2 0x9F1 JUMP JUMPDEST PUSH1 0x1 PUSH1 0x1 PUSH1 0xA0 SHL SUB DUP6 DUP2 AND PUSH1 0x60 DUP5 ADD MSTORE PUSH2 0xA46 PUSH1 0x80 DUP5 ADD DUP7 PUSH2 0x989 JUMP JUMPDEST DUP1 DUP5 AND PUSH1 0xA0 DUP5 ADD MSTORE POP SWAP8 SWAP7 POP POP POP POP POP POP POP JUMP JUMPDEST PUSH1 0x0 DUP1 PUSH1 0x40 DUP4 DUP6 SUB SLT ISZERO PUSH2 0xA6D JUMPI PUSH1 0x0 DUP1 REVERT JUMPDEST DUP3 CALLDATALOAD SWAP2 POP PUSH1 0x20 DUP4 ADD CALLDATALOAD PUSH1 0x4 DUP2 LT PUSH2 0xA83 JUMPI PUSH1 0x0 DUP1 REVERT JUMPDEST DUP1 SWAP2 POP POP SWAP3 POP SWAP3 SWAP1 POP JUMP JUMPDEST PUSH1 0x0 DUP1 PUSH1 0x0 PUSH1 0x60 DUP5 DUP7 SUB SLT ISZERO PUSH2 0xAA3 JUMPI PUSH1 0x0 DUP1 REVERT JUMPDEST DUP4 CALLDATALOAD SWAP3 POP PUSH2 0xAB3 PUSH1 0x20 DUP6 ADD PUSH2 0x82D JUMP JUMPDEST SWAP2 POP PUSH1 0x40 DUP5 ADD CALLDATALOAD DUP1 ISZERO ISZERO DUP2 EQ PUSH2 0xAC8 JUMPI PUSH1 0x0 DUP1 REVERT JUMPDEST DUP1 SWAP2 POP POP SWAP3 POP SWAP3 POP SWAP3 JUMP JUMPDEST PUSH1 0x0 DUP1 PUSH1 0x40 DUP4 DUP6 SUB SLT ISZERO PUSH2 0xAE6 JUMPI PUSH1 0x0 DUP1 REVERT JUMPDEST DUP3 CALLDATALOAD SWAP2 POP PUSH2 0x96A PUSH1 0x20 DUP5 ADD PUSH2 0x82D JUMP JUMPDEST PUSH1 0x0 PUSH1 0x20 DUP3 DUP5 SUB SLT ISZERO PUSH2 0xB08 JUMPI PUSH1 0x0 DUP1 REVERT JUMPDEST PUSH2 0xB11 DUP3 PUSH2 0x82D JUMP JUMPDEST SWAP4 SWAP3 POP POP POP JUMP JUMPDEST PUSH1 0x20 DUP1 DUP3 MSTORE DUP3 MLOAD DUP3 DUP3 ADD DUP2 SWAP1 MSTORE PUSH1 0x0 SWAP2 SWAP1 DUP5 DUP3 ADD SWAP1 PUSH1 0x40 DUP6 ADD SWAP1 DUP5 JUMPDEST DUP2 DUP2 LT ISZERO PUSH2 0xB50 JUMPI DUP4 MLOAD DUP4 MSTORE SWAP3 DUP5 ADD SWAP3 SWAP2 DUP5 ADD SWAP2 PUSH1 0x1 ADD PUSH2 0xB34 JUMP JUMPDEST POP SWAP1 SWAP7 SWAP6 POP POP POP POP POP POP JUMP JUMPDEST PUSH1 0x0 PUSH1 0x1 DUP3 ADD PUSH2 0xB7C JUMPI PUSH4 0x4E487B71 PUSH1 0xE0 SHL PUSH1 0x0 MSTORE PUSH1 0x11 PUSH1 0x4 MSTORE PUSH1 0x24 PUSH1 0x0 REVERT JUMPDEST POP PUSH1 0x1 ADD SWAP1 JUMP JUMPDEST PUSH1 0x1 DUP2 DUP2 SHR SWAP1 DUP3 AND DUP1 PUSH2 0xB97 JUMPI PUSH1 0x7F DUP3 AND SWAP2 POP JUMPDEST PUSH1 0x20 DUP3 LT DUP2 SUB PUSH2 0xBB7 JUMPI PUSH4 0x4E487B71 PUSH1 0xE0 SHL PUSH1 0x0 MSTORE PUSH1 0x22 PUSH1 0x4 MSTORE PUSH1 0x24 PUSH1 0x0 REVERT JUMPDEST POP SWAP2 SWAP1 POP JUMP JUMPDEST PUSH1 0x1F DUP3 GT ISZERO PUSH2 0xC07 JUMPI PUSH1 0x0 DUP2 DUP2 MSTORE PUSH1 0x20 DUP2 KECCAK256 PUSH1 0x1F DUP6 ADD PUSH1 0x5 SHR DUP2 ADD PUSH1 0x20 DUP7 LT ISZERO PUSH2 0xBE4 JUMPI POP DUP1 JUMPDEST PUSH1 0x1F DUP6 ADD PUSH1 0x5 SHR DUP3 ADD SWAP2 POP JUMPDEST DUP2 DUP2 LT ISZERO PUSH2 0xC03 JUMPI DUP3 DUP2 SSTORE PUSH1 0x1 ADD PUSH2 0xBF0 JUMP JUMPDEST POP POP POP JUMPDEST POP POP POP JUMP JUMPDEST DUP2 MLOAD PUSH8 0xFFFFFFFFFFFFFFFF DUP2 GT ISZERO PUSH2 0xC26 JUMPI PUSH2 0xC26 PUSH2 0x88C JUMP JUMPDEST PUSH2 0xC3A DUP2 PUSH2 0xC34 DUP5 SLOAD PUSH2 0xB83 JUMP JUMPDEST DUP5 PUSH2 0xBBD JUMP JUMPDEST PUSH1 0x20 DUP1 PUSH1 0x1F DUP4 GT PUSH1 0x1 DUP2 EQ PUSH2 0xC6F JUMPI PUSH1 0x0 DUP5 ISZERO PUSH2 0xC57 JUMPI POP DUP6 DUP4 ADD MLOAD JUMPDEST PUSH1 0x0 NOT PUSH1 0x3 DUP7 SWAP1 SHL SHR NOT AND PUSH1 0x1 DUP6 SWAP1 SHL OR DUP6 SSTORE PUSH2 0xC03 JUMP JUMPDEST PUSH1 0x0 DUP6 DUP2 MSTORE PUSH1 0x20 DUP2 KECCAK256 PUSH1 0x1F NOT DUP7 AND SWAP2 JUMPDEST DUP3 DUP2 LT ISZERO PUSH2 0xC9E JUMPI DUP9 DUP7 ADD MLOAD DUP3 SSTORE SWAP5 DUP5 ADD SWAP5 PUSH1 0x1 SWAP1 SWAP2 ADD SWAP1 DUP5 ADD PUSH2 0xC7F JUMP JUMPDEST POP DUP6 DUP3 LT ISZERO PUSH2 0xCBC JUMPI DUP8 DUP6 ADD MLOAD PUSH1 0x0 NOT PUSH1 0x3 DUP9 SWAP1 SHL PUSH1 0xF8 AND SHR NOT AND DUP2 SSTORE JUMPDEST POP POP POP POP POP PUSH1 0x1 SWAP1 DUP2 SHL ADD SWAP1 SSTORE POP JUMP JUMPDEST DUP4 DUP2 MSTORE PUSH1 0x60 PUSH1 0x20 DUP3 ADD MSTORE PUSH1 0x0 PUSH2 0xCE5 PUSH1 0x60 DUP4 ADD DUP6 PUSH2 0x9AB JUMP JUMPDEST SWAP1 POP PUSH2 0xCF4 PUSH1 0x40 DUP4 ADD DUP5 PUSH2 0x9F1 JUMP JUMPDEST SWAP5 SWAP4 POP POP POP POP JUMP INVALID LOG2 PUSH5 0x6970667358 0x22 SLT KECCAK256 CALLCODE STOP 0x27 SHL PUSH13 0x545F95D4AA91C51140F17178FF PUSH17 0x4272DCE713D415DF48BAD00B8A64736F6C PUSH4 0x43000814 STOP CALLER "
        },
        "methodIdentifiers": {
          "assignTo(uint256,address)": "e42891ea",
          "createTask(string,uint8)": "5ba0d8d7",
          "getAssignee(uint256)": "07b31818",
          "getStatus(uint256)": "5c622a0e",
          "getTasksByOwner(address)": "f0f39ce4",
          "owner()": "8da5cb5b",
          "ownerTasks(address,uint256)": "03d5489a",
          "renounceOwnership()": "715018a6",
          "setPermission(uint256,address,bool)": "df262fde",
          "tasks(uint256)": "8d977672",
          "transferOwnership(address)": "f2fde38b",
          "updateTaskStatus(uint256,uint8)": "ab9b6811"
        }
      }
    }
  }
}