{
  "_format": "hh-sol-artifact-1",
  "contractName": "AgentRegistry",
  "sourceName": "contracts/AgentRegistry.sol",
  "abi": [
    {
      "inputs": [],
      "stateMutability": "nonpayable",
      "type": "constructor"
    },
    {
      "inputs": [
        {
          "internalType": "address",
          "name": "owner",
          "type": "address"
        }
      ],
      "name": "OwnableInvalidOwner",
      "type": "error"
    },
    {
      "inputs": [
        {
          "internalType": "address",
          "name": "account",
          "type": "address"
        }
      ],
      "name": "OwnableUnauthorizedAccount",
      "type": "error"
    },
    {
      "anonymous": false,
      "inputs": [
        {
          "indexed": true,
          "internalType": "address",
          "name": "agent",
          "type": "address"
        },
        {
          "indexed": false,
          "internalType": "string",
          "name": "model",
          "type": "string"
        }
      ],
      "name": "AgentRegistered",
      "type": "event"
    },
    {
      "anonymous": false,
      "inputs": [
        {
          "indexed": true,
          "internalType": "address",
          "name": "previousOwner",
          "type": "address"
        },
        {
          "indexed": true,
          "internalType": "address",
          "name": "newOwner",
          "type": "address"
        }
      ],
      "name": "OwnershipTransferred",
      "type": "event"
    },
    {
      "anonymous": false,
      "inputs": [
        {
          "indexed": true,
          "internalType": "address",
          "name": "agent",
          "type": "address"
        },
        {
          "indexed": false,
          "internalType": "uint256",
          "name": "newReputation",
          "type": "uint256"
        }
      ],
      "name": "ReputationUpdated",
      "type": "event"
    },
    {
      "inputs": [
        {
          "internalType": "string",
          "name": "name",
          "type": "string"
        },
        {
          "internalType": "uint256",
          "name": "level",
          "type": "uint256"
        }
      ],
      "name": "addSkill",
      "outputs": [],
      "stateMutability": "nonpayable",
      "type": "function"
    },
    {
      "inputs": [
        {
          "internalType": "address",
          "name": "",
          "type": "address"
        }
      ],
      "name": "agents",
      "outputs": [
        {
          "internalType": "string",
          "name": "model",
          "type": "string"
        },
        {
          "internalType": "string",
          "name": "prompt",
          "type": "string"
        },
        {
          "internalType": "uint256",
          "name": "reputation",
          "type": "uint256"
        },
        {
          "internalType": "bool",
          "name": "isRegistered",
          "type": "bool"
        }
      ],
      "stateMutability": "view",
      "type": "function"
    },
    {
      "inputs": [
        {
          "internalType": "address",
          "name": "agent",
          "type": "address"
        }
      ],
      "name": "getAgentData",
      "outputs": [
        {
          "internalType": "string",
          "name": "model",
          "type": "string"
        },
        {
          "internalType": "string",
          "name": "prompt",
          "type": "string"
        },
        {
          "components": [
            {
              "internalType": "string",
              "name": "name",
              "type": "string"
            },
            {
              "internalType": "uint256",
              "name": "level",
              "type": "uint256"
            }
          ],
          "internalType": "struct IAgent.Skill[]",
          "name": "skills",
          "type": "tuple[]"
        },
        {
          "internalType": "uint256",
          "name": "reputation",
          "type": "uint256"
        }
      ],
      "stateMutability": "view",
      "type": "function"
    },
    {
      "inputs": [],
      "name": "getReputation",
      "outputs": [
        {
          "internalType": "uint256",
          "name": "",
          "type": "uint256"
        }
      ],
      "stateMutability": "view",
      "type": "function"
    },
    {
      "inputs": [],
      "name": "getSkills",
      "outputs": [
        {
          "components": [
            {
              "internalType": "string",
              "name": "name",
              "type": "string"
            },
            {
              "internalType": "uint256",
              "name": "level",
              "type": "uint256"
            }
          ],
          "internalType": "struct IAgent.Skill[]",
          "name": "",
          "type": "tuple[]"
        }
      ],
      "stateMutability": "view",
      "type": "function"
    },
    {
      "inputs": [
        {
          "internalType": "address",
          "name": "agent",
          "type": "address"
        }
      ],
      "name": "isRegistered",
      "outputs": [
        {
          "internalType": "bool",
          "name": "",
          "type": "bool"
        }
      ],
      "stateMutability": "view",
      "type": "function"
    },
    {
      "inputs": [],
      "name": "owner",
      "outputs": [
        {
          "internalType": "address",
          "name": "",
          "type": "address"
        }
      ],
      "stateMutability": "view",
      "type": "function"
    },
    {
      "inputs": [
        {
          "internalType": "string",
          "name": "model",
          "type": "string"
        },
        {
          "internalType": "string",
          "name": "prompt",
          "type": "string"
        },
        {
          "internalType": "string[]",
          "name": "skillNames",
          "type": "string[]"
        },
        {
          "internalType": "uint256[]",
          "name": "skillLevels",
          "type": "uint256[]"
        }
      ],
      "name": "registerAgent",
      "outputs": [
        {
          "internalType": "address",
          "name": "",
          "type": "address"
        }
      ],
      "stateMutability": "nonpayable",
      "type": "function"
    },
    {
      "inputs": [],
      "name": "renounceOwnership",
      "outputs": [],
      "stateMutability": "nonpayable",
      "type": "function"
    },
    {
      "inputs": [
        {
          "internalType": "address",
          "name": "newOwner",
          "type": "address"
        }
      ],
      "name": "transferOwnership",
      "outputs": [],
      "stateMutability": "nonpayable",
      "type": "function"
    },
    {
      "inputs": [
        {
          "internalType": "uint256",
          "name": "_reputation",
          "type": "uint256"
        }
      ],
      "name": "updateReputation",
      "outputs": [],
      "stateMutability": "nonpayable",
      "type": "function"
    }
  ],
  "bytecode": "0x608060405234801561001057600080fd5b50338061003757604051631e4fbdf760e01b81526000600482015260240160405180910390fd5b61004081610046565b50610096565b600080546001600160a01b038381166001600160a01b0319831681178455604051919092169283917f8be0079c531659141344cd1fd0a4f28419497f9722a3daafe3b4186f6b6457e09190a35050565b61120c806100a56000396000f3fe608060405234801561001057600080fd5b50600436106100a95760003560e01c8063c3c5a54711610071578063c3c5a5471461012f578063f2fde38b1461016e578063f43970f314610181578063fd66091e14610194578063fdd76bb3146101b7578063ffe6a18e146101cc57600080fd5b80635ed5273a146100ae578063715018a6146100de5780638da5cb5b146100e8578063a99d0a99146100f9578063aac9f15a1461010c575b600080fd5b6100c16100bc366004610d19565b6101e2565b6040516001600160a01b0390911681526020015b60405180910390f35b6100e66104a8565b005b6000546001600160a01b03166100c1565b6100e6610107366004610e34565b6104bc565b61011f61011a366004610e79565b610548565b6040516100d59493929190610f5a565b61015e61013d366004610e79565b6001600160a01b031660009081526001602052604090206004015460ff1690565b60405190151581526020016100d5565b6100e661017c366004610e79565b6107d6565b6100e661018f366004610fa5565b610814565b6101a76101a2366004610e79565b610898565b6040516100d59493929190610fbe565b6101bf6109d4565b6040516100d59190610ffc565b6101d4610b0d565b6040519081526020016100d5565b6000815183511461022c5760405162461bcd60e51b815260206004820152600f60248201526e0a6d6d2d8d8e640dad2e6dac2e8c6d608b1b60448201526064015b60405180910390fd5b3360009081526001602052604090206004015460ff161561028f5760405162461bcd60e51b815260206004820152601860248201527f4167656e7420616c7265616479207265676973746572656400000000000000006044820152606401610223565b6000835167ffffffffffffffff8111156102ab576102ab610bd3565b6040519080825280602002602001820160405280156102f157816020015b6040805180820190915260608152600060208201528152602001906001900390816102c95790505b50905060005b845181101561037757604051806040016040528086838151811061031d5761031d61100f565b6020026020010151815260200185838151811061033c5761033c61100f565b60200260200101518152508282815181106103595761035961100f565b6020026020010181905250808061036f90611025565b9150506102f7565b5033600090815260016020526040902061039187826110d5565b50336000908152600160208190526040909120016103af86826110d5565b50336000908152600160208190526040822060646003820155600401805460ff191690911790555b815181101561045b5733600090815260016020526040902082516002909101908390839081106104095761040961100f565b6020908102919091018101518254600181018455600093845291909220825160029092020190819061043b90826110d5565b50602082015181600101555050808061045390611025565b9150506103d7565b50336001600160a01b03167fda816ca2fc37b9eecec62ae8263008ec6be1afb38dc28bc9c7c51d7e348da9c2876040516104959190611195565b60405180910390a2503395945050505050565b6104b0610b56565b6104ba6000610b83565b565b3360009081526001602052604090206004015460ff166104ee5760405162461bcd60e51b8152600401610223906111a8565b33600090815260016020818152604080842081518083019092528682528183018690526002908101805494850181558552919093208351929091020190819061053790826110d5565b506020820151816001015550505050565b6001600160a01b038116600090815260016020526040812060040154606091829182919060ff1661058b5760405162461bcd60e51b8152600401610223906111a8565b6001600160a01b0385166000908152600160208190526040909120600381015481549192839290830191600284019184906105c59061104c565b80601f01602080910402602001604051908101604052809291908181526020018280546105f19061104c565b801561063e5780601f106106135761010080835404028352916020019161063e565b820191906000526020600020905b81548152906001019060200180831161062157829003601f168201915b505050505093508280546106519061104c565b80601f016020809104026020016040519081016040528092919081815260200182805461067d9061104c565b80156106ca5780601f1061069f576101008083540402835291602001916106ca565b820191906000526020600020905b8154815290600101906020018083116106ad57829003601f168201915b5050505050925081805480602002602001604051908101604052809291908181526020016000905b828210156107c057838290600052602060002090600202016040518060400160405290816000820180546107259061104c565b80601f01602080910402602001604051908101604052809291908181526020018280546107519061104c565b801561079e5780601f106107735761010080835404028352916020019161079e565b820191906000526020600020905b81548152906001019060200180831161078157829003601f168201915b50505050508152602001600182015481525050815260200190600101906106f2565b5050505091509450945094509450509193509193565b6107de610b56565b6001600160a01b03811661080857604051631e4fbdf760e01b815260006004820152602401610223565b61081181610b83565b50565b3360009081526001602052604090206004015460ff166108465760405162461bcd60e51b8152600401610223906111a8565b3360008181526001602052604090819020600301839055517ffc577563f1b9a0461e24abef1e1fcc0d33d3d881f20b5df6dda59de4aae2c8219061088d9084815260200190565b60405180910390a250565b6001602052600090815260409020805481906108b39061104c565b80601f01602080910402602001604051908101604052809291908181526020018280546108df9061104c565b801561092c5780601f106109015761010080835404028352916020019161092c565b820191906000526020600020905b81548152906001019060200180831161090f57829003601f168201915b5050505050908060010180546109419061104c565b80601f016020809104026020016040519081016040528092919081815260200182805461096d9061104c565b80156109ba5780601f1061098f576101008083540402835291602001916109ba565b820191906000526020600020905b81548152906001019060200180831161099d57829003601f168201915b50505050600383015460049093015491929160ff16905084565b3360009081526001602052604090206004015460609060ff16610a095760405162461bcd60e51b8152600401610223906111a8565b33600090815260016020908152604080832060020180548251818502810185019093528083529193909284015b82821015610b045783829060005260206000209060020201604051806040016040529081600082018054610a699061104c565b80601f0160208091040260200160405190810160405280929190818152602001828054610a959061104c565b8015610ae25780601f10610ab757610100808354040283529160200191610ae2565b820191906000526020600020905b815481529060010190602001808311610ac557829003601f168201915b5050505050815260200160018201548152505081526020019060010190610a36565b50505050905090565b3360009081526001602052604081206004015460ff16610b3f5760405162461bcd60e51b8152600401610223906111a8565b503360009081526001602052604090206003015490565b6000546001600160a01b031633146104ba5760405163118cdaa760e01b8152336004820152602401610223565b600080546001600160a01b038381166001600160a01b0319831681178455604051919092169283917f8be0079c531659141344cd1fd0a4f28419497f9722a3daafe3b4186f6b6457e09190a35050565b634e487b7160e01b600052604160045260246000fd5b604051601f8201601f1916810167ffffffffffffffff81118282101715610c1257610c12610bd3565b604052919050565b600082601f830112610c2b57600080fd5b813567ffffffffffffffff811115610c4557610c45610bd3565b610c58601f8201601f1916602001610be9565b818152846020838601011115610c6d57600080fd5b816020850160208301376000918101602001919091529392505050565b600067ffffffffffffffff821115610ca457610ca4610bd3565b5060051b60200190565b600082601f830112610cbf57600080fd5b81356020610cd4610ccf83610c8a565b610be9565b82815260059290921b84018101918181019086841115610cf357600080fd5b8286015b84811015610d0e5780358352918301918301610cf7565b509695505050505050565b60008060008060808587031215610d2f57600080fd5b843567ffffffffffffffff80821115610d4757600080fd5b610d5388838901610c1a565b9550602091508187013581811115610d6a57600080fd5b610d7689828a01610c1a565b955050604087013581811115610d8b57600080fd5b8701601f81018913610d9c57600080fd5b8035610daa610ccf82610c8a565b81815260059190911b8201840190848101908b831115610dc957600080fd5b8584015b83811015610e0157803586811115610de55760008081fd5b610df38e8983890101610c1a565b845250918601918601610dcd565b5096505050506060870135915080821115610e1b57600080fd5b50610e2887828801610cae565b91505092959194509250565b60008060408385031215610e4757600080fd5b823567ffffffffffffffff811115610e5e57600080fd5b610e6a85828601610c1a565b95602094909401359450505050565b600060208284031215610e8b57600080fd5b81356001600160a01b0381168114610ea257600080fd5b9392505050565b6000815180845260005b81811015610ecf57602081850181015186830182015201610eb3565b506000602082860101526020601f19601f83011685010191505092915050565b600081518084526020808501808196508360051b8101915082860160005b85811015610f4d578284038952815160408151818752610f2f82880182610ea9565b92880151968801969096525098850198935090840190600101610f0d565b5091979650505050505050565b608081526000610f6d6080830187610ea9565b8281036020840152610f7f8187610ea9565b90508281036040840152610f938186610eef565b91505082606083015295945050505050565b600060208284031215610fb757600080fd5b5035919050565b608081526000610fd16080830187610ea9565b8281036020840152610fe38187610ea9565b6040840195909552505090151560609091015292915050565b602081526000610ea26020830184610eef565b634e487b7160e01b600052603260045260246000fd5b60006001820161104557634e487b7160e01b600052601160045260246000fd5b5060010190565b600181811c9082168061106057607f821691505b60208210810361108057634e487b7160e01b600052602260045260246000fd5b50919050565b601f8211156110d057600081815260208120601f850160051c810160208610156110ad5750805b601f850160051c820191505b818110156110cc578281556001016110b9565b5050505b505050565b815167ffffffffffffffff8111156110ef576110ef610bd3565b611103816110fd845461104c565b84611086565b602080601f83116001811461113857600084156111205750858301515b600019600386901b1c1916600185901b1785556110cc565b600085815260208120601f198616915b8281101561116757888601518255948401946001909101908401611148565b50858210156111855787850151600019600388901b60f8161c191681555b5050505050600190811b01905550565b602081526000610ea26020830184610ea9565b6020808252601490820152731059d95b9d081b9bdd081c9959da5cdd195c995960621b60408201526060019056fea26469706673582212208e58ea76caf818badf8038677f419e32267332f3d422b4a89269271739a58b5a64736f6c63430008140033",
  "linkReferences": {},
  "deployedLinkReferences": {}
}