{
  "_format": "hh-sol-artifact-1",
  "contractName": "AgentRegistry",
  "sourceName": "contracts/AgentRegistry.sol",
  "abi": [
    {
      "inputs": [],
      "stateMutability": "nonpayable",
      "type": "constructor"
    },
    {
      "inputs": [
        {
          "internalType": "address",
          "name": "owner",
          "type": "address"
        }
      ],
      "name": "OwnableInvalidOwner",
      "type": "error"
    },
    {
      "inputs": [
        {
          "internalType": "address",
          "name": "account",
          "type": "address"
        }
      ],
      "name": "OwnableUnauthorizedAccount",
      "type": "error"
    },
    {
      "anonymous": false,
      "inputs": [
        {
          "indexed": true,
          "internalType": "address",
          "name": "agent",
          "type": "address"
        },
        {
          "indexed": false,
          "internalType": "string",
          "name": "model",
          "type": "string"
        }
      ],
      "name": "AgentRegistered",
      "type": "event"
    },
    {
      "anonymous": false,
      "inputs": [
        {
          "indexed": true,
          "internalType": "address",
          "name": "previousOwner",
          "type": "address"
        },
        {
          "indexed": true,
          "internalType": "address",
          "name": "newOwner",
          "type": "address"
        }
      ],
      "name": "OwnershipTransferred",
      "type": "event"
    },
    {
      "inputs": [
        {
          "internalType": "address",
          "name": "",
          "type": "address"
        }
      ],
      "name": "agentRegistry",
      "outputs": [
        {
          "internalType": "contract Agent",
          "name": "",
          "type": "address"
        }
      ],
      "stateMutability": "view",
      "type": "function"
    },
    {
      "inputs": [
        {
          "internalType": "address",
          "name": "agent",
          "type": "address"
        }
      ],
      "name": "isRegistered",
      "outputs": [
        {
          "internalType": "bool",
          "name": "",
          "type": "bool"
        }
      ],
      "stateMutability": "view",
      "type": "function"
    },
    {
      "inputs": [],
      "name": "owner",
      "outputs": [
        {
          "internalType": "address",
          "name": "",
          "type": "address"
        }
      ],
      "stateMutability": "view",
      "type": "function"
    },
    {
      "inputs": [
        {
          "internalType": "string",
          "name": "model",
          "type": "string"
        },
        {
          "internalType": "string",
          "name": "prompt",
          "type": "string"
        },
        {
          "internalType": "string[]",
          "name": "skillNames",
          "type": "string[]"
        },
        {
          "internalType": "uint256[]",
          "name": "skillLevels",
          "type": "uint256[]"
        }
      ],
      "name": "registerAgent",
      "outputs": [
        {
          "internalType": "address",
          "name": "",
          "type": "address"
        }
      ],
      "stateMutability": "nonpayable",
      "type": "function"
    },
    {
      "inputs": [],
      "name": "renounceOwnership",
      "outputs": [],
      "stateMutability": "nonpayable",
      "type": "function"
    },
    {
      "inputs": [
        {
          "internalType": "address",
          "name": "newOwner",
          "type": "address"
        }
      ],
      "name": "transferOwnership",
      "outputs": [],
      "stateMutability": "nonpayable",
      "type": "function"
    }
  ],
  "bytecode": "0x608060405234801561001057600080fd5b50338061003757604051631e4fbdf760e01b81526000600482015260240160405180910390fd5b61004081610046565b50610096565b600080546001600160a01b038381166001600160a01b0319831681178455604051919092169283917f8be0079c531659141344cd1fd0a4f28419497f9722a3daafe3b4186f6b6457e09190a35050565b61167f806100a56000396000f3fe60806040523480156200001157600080fd5b50600436106200006a5760003560e01c80634defd56d146200006f5780635ed5273a14620000b8578063715018a614620000cf5780638da5cb5b14620000db578063c3c5a54714620000ed578063f2fde38b146200012f575b600080fd5b6200009b6200008036600462000349565b6001602052600090815260409020546001600160a01b031681565b6040516001600160a01b0390911681526020015b60405180910390f35b6200009b620000c9366004620004d6565b62000146565b620000d96200025c565b005b6000546001600160a01b03166200009b565b6200011e620000fe36600462000349565b6001600160a01b0390811660009081526001602052604090205416151590565b6040519015158152602001620000af565b620000d96200014036600462000349565b62000274565b600080858585856040516200015b906200033b565b6200016a94939291906200068b565b604051809103906000f08015801562000187573d6000803e3d6000fd5b5060405163f2fde38b60e01b815233600482015290915081906001600160a01b0382169063f2fde38b90602401600060405180830381600087803b158015620001cf57600080fd5b505af1158015620001e4573d6000803e3d6000fd5b505050506001600160a01b038181166000818152600160205260409081902080546001600160a01b0319169386169390931790925590517fda816ca2fc37b9eecec62ae8263008ec6be1afb38dc28bc9c7c51d7e348da9c2906200024a908a906200072f565b60405180910390a29695505050505050565b62000266620002bc565b620002726000620002eb565b565b6200027e620002bc565b6001600160a01b038116620002ae57604051631e4fbdf760e01b8152600060048201526024015b60405180910390fd5b620002b981620002eb565b50565b6000546001600160a01b03163314620002725760405163118cdaa760e01b8152336004820152602401620002a5565b600080546001600160a01b038381166001600160a01b0319831681178455604051919092169283917f8be0079c531659141344cd1fd0a4f28419497f9722a3daafe3b4186f6b6457e09190a35050565b610f05806200074583390190565b6000602082840312156200035c57600080fd5b81356001600160a01b03811681146200037457600080fd5b9392505050565b634e487b7160e01b600052604160045260246000fd5b604051601f8201601f1916810167ffffffffffffffff81118282101715620003bd57620003bd6200037b565b604052919050565b600082601f830112620003d757600080fd5b813567ffffffffffffffff811115620003f457620003f46200037b565b62000409601f8201601f191660200162000391565b8181528460208386010111156200041f57600080fd5b816020850160208301376000918101602001919091529392505050565b600067ffffffffffffffff8211156200045957620004596200037b565b5060051b60200190565b600082601f8301126200047557600080fd5b813560206200048e62000488836200043c565b62000391565b82815260059290921b84018101918181019086841115620004ae57600080fd5b8286015b84811015620004cb5780358352918301918301620004b2565b509695505050505050565b60008060008060808587031215620004ed57600080fd5b843567ffffffffffffffff808211156200050657600080fd5b6200051488838901620003c5565b95506020915081870135818111156200052c57600080fd5b6200053a89828a01620003c5565b9550506040870135818111156200055057600080fd5b8701601f810189136200056257600080fd5b80356200057362000488826200043c565b81815260059190911b8201840190848101908b8311156200059357600080fd5b8584015b83811015620005d057803586811115620005b15760008081fd5b620005c18e8983890101620003c5565b84525091860191860162000597565b5096505050506060870135915080821115620005eb57600080fd5b50620005fa8782880162000463565b91505092959194509250565b6000815180845260005b818110156200062e5760208185018101518683018201520162000610565b506000602082860101526020601f19601f83011685010191505092915050565b600081518084526020808501945080840160005b83811015620006805781518752958201959082019060010162000662565b509495945050505050565b608081526000620006a0608083018762000606565b602083820381850152620006b5828862000606565b915083820360408501528186518084528284019150828160051b85010183890160005b838110156200070a57601f19878403018552620006f783835162000606565b94860194925090850190600101620006d8565b505086810360608801526200072081896200064e565b9b9a5050505050505050505050565b6020815260006200037460208301846200060656fe60806040523480156200001157600080fd5b5060405162000f0538038062000f05833981016040819052620000349162000343565b33806200005c57604051631e4fbdf760e01b8152600060048201526024015b60405180910390fd5b620000678162000184565b508051825114620000ad5760405162461bcd60e51b815260206004820152600f60248201526e0a6d6d2d8d8e640dad2e6dac2e8c6d608b1b604482015260640162000053565b6001620000bb858262000502565b506002620000ca848262000502565b50606460045560005b8251811015620001795760036040518060400160405280858481518110620000ff57620000ff620005ce565b60200260200101518152602001848481518110620001215762000121620005ce565b602090810291909101810151909152825460018101845560009384529220815191926002020190819062000156908262000502565b5060208201518160010155505080806200017090620005e4565b915050620000d3565b50505050506200060c565b600080546001600160a01b038381166001600160a01b0319831681178455604051919092169283917f8be0079c531659141344cd1fd0a4f28419497f9722a3daafe3b4186f6b6457e09190a35050565b634e487b7160e01b600052604160045260246000fd5b604051601f8201601f191681016001600160401b0381118282101715620002155762000215620001d4565b604052919050565b600082601f8301126200022f57600080fd5b81516001600160401b038111156200024b576200024b620001d4565b602062000261601f8301601f19168201620001ea565b82815285828487010111156200027657600080fd5b60005b838110156200029657858101830151828201840152820162000279565b506000928101909101919091529392505050565b60006001600160401b03821115620002c657620002c6620001d4565b5060051b60200190565b600082601f830112620002e257600080fd5b81516020620002fb620002f583620002aa565b620001ea565b82815260059290921b840181019181810190868411156200031b57600080fd5b8286015b848110156200033857805183529183019183016200031f565b509695505050505050565b600080600080608085870312156200035a57600080fd5b84516001600160401b03808211156200037257600080fd5b62000380888389016200021d565b95506020915081870151818111156200039857600080fd5b620003a689828a016200021d565b955050604087015181811115620003bc57600080fd5b8701601f81018913620003ce57600080fd5b8051620003df620002f582620002aa565b81815260059190911b8201840190848101908b831115620003ff57600080fd5b8584015b838110156200043c578051868111156200041d5760008081fd5b6200042d8e89838901016200021d565b84525091860191860162000403565b5060608b01519097509450505050808211156200045857600080fd5b506200046787828801620002d0565b91505092959194509250565b600181811c908216806200048857607f821691505b602082108103620004a957634e487b7160e01b600052602260045260246000fd5b50919050565b601f821115620004fd57600081815260208120601f850160051c81016020861015620004d85750805b601f850160051c820191505b81811015620004f957828155600101620004e4565b5050505b505050565b81516001600160401b038111156200051e576200051e620001d4565b62000536816200052f845462000473565b84620004af565b602080601f8311600181146200056e5760008415620005555750858301515b600019600386901b1c1916600185901b178555620004f9565b600085815260208120601f198616915b828110156200059f578886015182559484019460019091019084016200057e565b5085821015620005be5787850151600019600388901b60f8161c191681555b5050505050600190811b01905550565b634e487b7160e01b600052603260045260246000fd5b6000600182016200060557634e487b7160e01b600052601160045260246000fd5b5060010190565b6108e9806200061c6000396000f3fe608060405234801561001057600080fd5b50600436106100a95760003560e01c8063a99d0a9911610071578063a99d0a991461011a578063c52164c61461012d578063f2fde38b14610144578063f43970f314610157578063fdd76bb31461016a578063ffe6a18e1461017f57600080fd5b80630ad9d052146100ae57806350d15fbe146100cc578063715018a6146100ed5780637c65d711146100f75780638da5cb5b146100ff575b600080fd5b6100b6610187565b6040516100c391906105ab565b60405180910390f35b6100df6100da3660046105c5565b610215565b6040516100c39291906105de565b6100f56102d1565b005b6100b66102e5565b6000546040516001600160a01b0390911681526020016100c3565b6100f5610128366004610616565b6102f2565b61013660045481565b6040519081526020016100c3565b6100f56101523660046106cb565b610365565b6100f56101653660046105c5565b6103a8565b6101726103ed565b6040516100c391906106f4565b600454610136565b600180546101949061076a565b80601f01602080910402602001604051908101604052809291908181526020018280546101c09061076a565b801561020d5780601f106101e25761010080835404028352916020019161020d565b820191906000526020600020905b8154815290600101906020018083116101f057829003601f168201915b505050505081565b6003818154811061022557600080fd5b90600052602060002090600202016000915090508060000180546102489061076a565b80601f01602080910402602001604051908101604052809291908181526020018280546102749061076a565b80156102c15780601f10610296576101008083540402835291602001916102c1565b820191906000526020600020905b8154815290600101906020018083116102a457829003601f168201915b5050505050908060010154905082565b6102d96104e8565b6102e36000610515565b565b600280546101949061076a565b6102fa6104e8565b604080518082019091528281526020810182905260038054600181018255600091909152815160029091027fc2575a0e9e593c00f959f8c92f12db2869c3395a3b0502d05e2516446f71f85b0190819061035490826107f3565b506020820151816001015550505050565b61036d6104e8565b6001600160a01b03811661039c57604051631e4fbdf760e01b8152600060048201526024015b60405180910390fd5b6103a581610515565b50565b6103b06104e8565b600481905560405181815230907ffc577563f1b9a0461e24abef1e1fcc0d33d3d881f20b5df6dda59de4aae2c8219060200160405180910390a250565b60606003805480602002602001604051908101604052809291908181526020016000905b828210156104df57838290600052602060002090600202016040518060400160405290816000820180546104449061076a565b80601f01602080910402602001604051908101604052809291908181526020018280546104709061076a565b80156104bd5780601f10610492576101008083540402835291602001916104bd565b820191906000526020600020905b8154815290600101906020018083116104a057829003601f168201915b5050505050815260200160018201548152505081526020019060010190610411565b50505050905090565b6000546001600160a01b031633146102e35760405163118cdaa760e01b8152336004820152602401610393565b600080546001600160a01b038381166001600160a01b0319831681178455604051919092169283917f8be0079c531659141344cd1fd0a4f28419497f9722a3daafe3b4186f6b6457e09190a35050565b6000815180845260005b8181101561058b5760208185018101518683018201520161056f565b506000602082860101526020601f19601f83011685010191505092915050565b6020815260006105be6020830184610565565b9392505050565b6000602082840312156105d757600080fd5b5035919050565b6040815260006105f16040830185610565565b90508260208301529392505050565b634e487b7160e01b600052604160045260246000fd5b6000806040838503121561062957600080fd5b823567ffffffffffffffff8082111561064157600080fd5b818501915085601f83011261065557600080fd5b81358181111561066757610667610600565b604051601f8201601f19908116603f0116810190838211818310171561068f5761068f610600565b816040528281528860208487010111156106a857600080fd5b826020860160208301376000602093820184015298969091013596505050505050565b6000602082840312156106dd57600080fd5b81356001600160a01b03811681146105be57600080fd5b60006020808301818452808551808352604092508286019150828160051b87010184880160005b8381101561075c57888303603f190185528151805187855261073f88860182610565565b91890151948901949094529487019492509086019060010161071b565b509098975050505050505050565b600181811c9082168061077e57607f821691505b60208210810361079e57634e487b7160e01b600052602260045260246000fd5b50919050565b601f8211156107ee57600081815260208120601f850160051c810160208610156107cb5750805b601f850160051c820191505b818110156107ea578281556001016107d7565b5050505b505050565b815167ffffffffffffffff81111561080d5761080d610600565b6108218161081b845461076a565b846107a4565b602080601f831160018114610856576000841561083e5750858301515b600019600386901b1c1916600185901b1785556107ea565b600085815260208120601f198616915b8281101561088557888601518255948401946001909101908401610866565b50858210156108a35787850151600019600388901b60f8161c191681555b5050505050600190811b0190555056fea2646970667358221220da666bd32e15bb0a3233f785b08adb7cbf701774119f05cf1de0862b30b3f9f264736f6c63430008140033a2646970667358221220d667b16d140aaf7e8b68d74d790d5b1e0b6f9169df0f651a348c240f5dbfda5a64736f6c63430008140033",
  "linkReferences": {},
  "deployedLinkReferences": {}
}