{
  "_format": "hh-sol-artifact-1",
  "contractName": "TaskRegistry",
  "sourceName": "contracts/TaskRegistry.sol",
  "abi": [
    {
      "inputs": [],
      "stateMutability": "nonpayable",
      "type": "constructor"
    },
    {
      "inputs": [
        {
          "internalType": "address",
          "name": "owner",
          "type": "address"
        }
      ],
      "name": "OwnableInvalidOwner",
      "type": "error"
    },
    {
      "inputs": [
        {
          "internalType": "address",
          "name": "account",
          "type": "address"
        }
      ],
      "name": "OwnableUnauthorizedAccount",
      "type": "error"
    },
    {
      "anonymous": false,
      "inputs": [
        {
          "indexed": true,
          "internalType": "address",
          "name": "task",
          "type": "address"
        },
        {
          "indexed": true,
          "internalType": "address",
          "name": "agent",
          "type": "address"
        }
      ],
      "name": "AgentAssigned",
      "type": "event"
    },
    {
      "anonymous": false,
      "inputs": [
        {
          "indexed": true,
          "internalType": "address",
          "name": "previousOwner",
          "type": "address"
        },
        {
          "indexed": true,
          "internalType": "address",
          "name": "newOwner",
          "type": "address"
        }
      ],
      "name": "OwnershipTransferred",
      "type": "event"
    },
    {
      "anonymous": false,
      "inputs": [
        {
          "indexed": true,
          "internalType": "address",
          "name": "owner",
          "type": "address"
        },
        {
          "indexed": false,
          "internalType": "address",
          "name": "task",
          "type": "address"
        }
      ],
      "name": "TaskCreated",
      "type": "event"
    },
    {
      "inputs": [
        {
          "internalType": "address",
          "name": "taskAddr",
          "type": "address"
        },
        {
          "internalType": "address",
          "name": "agent",
          "type": "address"
        }
      ],
      "name": "assignAgent",
      "outputs": [],
      "stateMutability": "nonpayable",
      "type": "function"
    },
    {
      "inputs": [
        {
          "internalType": "string",
          "name": "prompt",
          "type": "string"
        },
        {
          "internalType": "enum ITask.TaskType",
          "name": "taskType",
          "type": "uint8"
        }
      ],
      "name": "createTask",
      "outputs": [
        {
          "internalType": "address",
          "name": "",
          "type": "address"
        }
      ],
      "stateMutability": "nonpayable",
      "type": "function"
    },
    {
      "inputs": [
        {
          "internalType": "address",
          "name": "owner",
          "type": "address"
        }
      ],
      "name": "getTasksByOwner",
      "outputs": [
        {
          "internalType": "contract Task[]",
          "name": "",
          "type": "address[]"
        }
      ],
      "stateMutability": "view",
      "type": "function"
    },
    {
      "inputs": [],
      "name": "owner",
      "outputs": [
        {
          "internalType": "address",
          "name": "",
          "type": "address"
        }
      ],
      "stateMutability": "view",
      "type": "function"
    },
    {
      "inputs": [],
      "name": "renounceOwnership",
      "outputs": [],
      "stateMutability": "nonpayable",
      "type": "function"
    },
    {
      "inputs": [
        {
          "internalType": "address",
          "name": "",
          "type": "address"
        },
        {
          "internalType": "uint256",
          "name": "",
          "type": "uint256"
        }
      ],
      "name": "tasksRegistry",
      "outputs": [
        {
          "internalType": "contract Task",
          "name": "",
          "type": "address"
        }
      ],
      "stateMutability": "view",
      "type": "function"
    },
    {
      "inputs": [
        {
          "internalType": "address",
          "name": "newOwner",
          "type": "address"
        }
      ],
      "name": "transferOwnership",
      "outputs": [],
      "stateMutability": "nonpayable",
      "type": "function"
    }
  ],
  "bytecode": "0x608060405234801561001057600080fd5b50338061003757604051631e4fbdf760e01b81526000600482015260240160405180910390fd5b61004081610046565b50610096565b600080546001600160a01b038381166001600160a01b0319831681178455604051919092169283917f8be0079c531659141344cd1fd0a4f28419497f9722a3daafe3b4186f6b6457e09190a35050565b6114c7806100a56000396000f3fe60806040523480156200001157600080fd5b5060043610620000875760003560e01c8063bc673f971162000062578063bc673f9714620000de578063ce19538214620000f5578063f0f39ce4146200010c578063f2fde38b146200013257600080fd5b80635ba0d8d7146200008c578063715018a614620000c05780638da5cb5b14620000cc575b600080fd5b620000a36200009d3660046200054e565b62000149565b6040516001600160a01b0390911681526020015b60405180910390f35b620000ca62000203565b005b6000546001600160a01b0316620000a3565b620000ca620000ef36600462000632565b6200021b565b620000a36200010636600462000670565b620003a1565b620001236200011d3660046200069f565b620003da565b604051620000b79190620006c6565b620000ca620001433660046200069f565b62000452565b6000808383336040516200015d9062000515565b6200016b9392919062000715565b604051809103906000f08015801562000188573d6000803e3d6000fd5b503360008181526001602081815260408084208054938401815584529281902090910180546001600160a01b0319166001600160a01b038616908117909155915191825292935090917f5977287f5f66dc04df1a397cdd58f5db2632319686b39589ab053c2d753bf600910160405180910390a29392505050565b6200020d62000496565b620002196000620004c5565b565b816200022f6000546001600160a01b031690565b6001600160a01b0316336001600160a01b03161480620002c45750806001600160a01b0316638da5cb5b6040518163ffffffff1660e01b8152600401602060405180830381865afa15801562000289573d6000803e3d6000fd5b505050506040513d601f19601f82011682018060405250810190620002af9190620007a2565b6001600160a01b0316336001600160a01b0316145b620003075760405162461bcd60e51b815260206004820152600e60248201526d139bdd08185d5d1a1bdc9a5e995960921b60448201526064015b60405180910390fd5b60405163271c381360e11b81526001600160a01b038381166004830152821690634e38702690602401600060405180830381600087803b1580156200034b57600080fd5b505af115801562000360573d6000803e3d6000fd5b50506040516001600160a01b038086169350861691507f7629256eb516bdc80342f65a097d4ecf4c301d15115c1d82f4a639c8c505f02490600090a3505050565b60016020528160005260406000208181548110620003be57600080fd5b6000918252602090912001546001600160a01b03169150829050565b6001600160a01b0381166000908152600160209081526040918290208054835181840281018401909452808452606093928301828280156200044657602002820191906000526020600020905b81546001600160a01b0316815260019091019060200180831162000427575b50505050509050919050565b6200045c62000496565b6001600160a01b0381166200048857604051631e4fbdf760e01b815260006004820152602401620002fe565b6200049381620004c5565b50565b6000546001600160a01b03163314620002195760405163118cdaa760e01b8152336004820152602401620002fe565b600080546001600160a01b038381166001600160a01b0319831681178455604051919092169283917f8be0079c531659141344cd1fd0a4f28419497f9722a3daafe3b4186f6b6457e09190a35050565b610ccf80620007c383390190565b634e487b7160e01b600052604160045260246000fd5b8035600381106200054957600080fd5b919050565b600080604083850312156200056257600080fd5b823567ffffffffffffffff808211156200057b57600080fd5b818501915085601f8301126200059057600080fd5b813581811115620005a557620005a562000523565b604051601f8201601f19908116603f01168101908382118183101715620005d057620005d062000523565b81604052828152886020848701011115620005ea57600080fd5b826020860160208301376000602084830101528096505050505050620006136020840162000539565b90509250929050565b6001600160a01b03811681146200049357600080fd5b600080604083850312156200064657600080fd5b823562000653816200061c565b9150602083013562000665816200061c565b809150509250929050565b600080604083850312156200068457600080fd5b823562000691816200061c565b946020939093013593505050565b600060208284031215620006b257600080fd5b8135620006bf816200061c565b9392505050565b6020808252825182820181905260009190848201906040850190845b81811015620007095783516001600160a01b031683529284019291840191600101620006e2565b50909695505050505050565b606081526000845180606084015260005b8181101562000745576020818801810151608086840101520162000726565b506000608082850101526080601f19601f830116840101915050600384106200077e57634e487b7160e01b600052602160045260246000fd5b8360208301526200079a60408301846001600160a01b03169052565b949350505050565b600060208284031215620007b557600080fd5b8151620006bf816200061c56fe60806040523480156200001157600080fd5b5060405162000ccf38038062000ccf83398101604081905262000034916200015e565b806001600160a01b0381166200006457604051631e4fbdf760e01b81526000600482015260240160405180910390fd5b6200006f81620000cb565b50600180556002620000828482620002e7565b506003805483919060ff19166001836002811115620000a557620000a5620003b3565b02179055506005805460ff60a01b19169055620000c281620000cb565b505050620003c9565b600080546001600160a01b038381166001600160a01b0319831681178455604051919092169283917f8be0079c531659141344cd1fd0a4f28419497f9722a3daafe3b4186f6b6457e09190a35050565b634e487b7160e01b600052604160045260246000fd5b8051600381106200014157600080fd5b919050565b80516001600160a01b03811681146200014157600080fd5b6000806000606084860312156200017457600080fd5b83516001600160401b03808211156200018c57600080fd5b818601915086601f830112620001a157600080fd5b815181811115620001b657620001b66200011b565b604051601f8201601f19908116603f01168101908382118183101715620001e157620001e16200011b565b81604052828152602093508984848701011115620001fe57600080fd5b600091505b8282101562000222578482018401518183018501529083019062000203565b60008484830101528097505050506200023d81870162000131565b935050506200024f6040850162000146565b90509250925092565b600181811c908216806200026d57607f821691505b6020821081036200028e57634e487b7160e01b600052602260045260246000fd5b50919050565b601f821115620002e257600081815260208120601f850160051c81016020861015620002bd5750805b601f850160051c820191505b81811015620002de57828155600101620002c9565b5050505b505050565b81516001600160401b038111156200030357620003036200011b565b6200031b8162000314845462000258565b8462000294565b602080601f8311600181146200035357600084156200033a5750858301515b600019600386901b1c1916600185901b178555620002de565b600085815260208120601f198616915b82811015620003845788860151825594840194600190910190840162000363565b5085821015620003a35787850151600019600388901b60f8161c191681555b5050505050600190811b01905550565b634e487b7160e01b600052602160045260246000fd5b6108f680620003d96000396000f3fe608060405234801561001057600080fd5b50600436106100cf5760003560e01c80637c65d7111161008c578063aa92e29f11610066578063aa92e29f146101c7578063ec6263c0146101d8578063ef17a55e146101eb578063f2fde38b146101fe57600080fd5b80637c65d711146101875780638cf6f32c1461019c5780638da5cb5b146101b657600080fd5b806301e88208146100d4578063200d2ed21461010c5780634e3870261461012d5780634e69d56014610142578063682c994c14610154578063715018a61461017f575b600080fd5b6100f76100e23660046106fd565b60046020526000908152604090205460ff1681565b60405190151581526020015b60405180910390f35b60055461012090600160a01b900460ff1681565b6040516101039190610735565b61014061013b3660046106fd565b610211565b005b600554600160a01b900460ff16610120565b600554610167906001600160a01b031681565b6040516001600160a01b039091168152602001610103565b6101406102d6565b61018f6102ea565b604051610103919061074f565b6003546101a99060ff1681565b604051610103919061079d565b6000546001600160a01b0316610167565b6005546001600160a01b0316610167565b6101406101e63660046107b1565b610378565b6100f76101f93660046107ed565b6103f0565b61014061020c3660046106fd565b6105fc565b61021961063a565b600080600554600160a01b900460ff16600381111561023a5761023a61071f565b146102825760405162461bcd60e51b8152602060048201526013602482015272496e76616c6964207461736b2073746174757360681b60448201526064015b60405180910390fd5b600580546001600160a01b0384166001600160a81b03199091168117600160a01b1790915560405130907f52476d55ecef5cf13caa64038f297fe6bbf865d9584a98b8722a15a6d5db128f90600090a35050565b6102de61063a565b6102e86000610667565b565b600280546102f790610876565b80601f016020809104026020016040519081016040528092919081815260200182805461032390610876565b80156103705780601f1061034557610100808354040283529160200191610370565b820191906000526020600020905b81548152906001019060200180831161035357829003601f168201915b505050505081565b61038061063a565b6001600160a01b03821660009081526004602052604090819020805460ff1916831515179055600554905130917fd76ef80cfb1ce0c70d0cbc0ab1b9f2f298a78f9fca5c841be963ae9a5d721bb4916103e49160ff600160a01b9091041690610735565b60405180910390a25050565b6005546000906001600160a01b0316331461044d5760405162461bcd60e51b815260206004820152601960248201527f4f6e6c792061737369676e65652063616e2065786563757465000000000000006044820152606401610279565b600180600554600160a01b900460ff16600381111561046e5761046e61071f565b146104b15760405162461bcd60e51b8152602060048201526013602482015272496e76616c6964207461736b2073746174757360681b6044820152606401610279565b6104b96106b7565b6001600160a01b03841660009081526004602052604090205460ff166105185760405162461bcd60e51b815260206004820152601460248201527315185c99d95d081b9bdd081c195c9b5a5d1d195960621b6044820152606401610279565b6000846001600160a01b03168488886040516105359291906108b0565b60006040518083038185875af1925050503d8060008114610572576040519150601f19603f3d011682016040523d82523d6000602084013e610577565b606091505b505090508061058757600361058a565b60025b6005805460ff60a01b1916600160a01b8360038111156105ac576105ac61071f565b0217905550604051811515815230907f927ecc698e7293785487e40c7eb8f2aefb6abc81d77df63ab5d5c883da1df93a9060200160405180910390a291506105f360018055565b50949350505050565b61060461063a565b6001600160a01b03811661062e57604051631e4fbdf760e01b815260006004820152602401610279565b61063781610667565b50565b6000546001600160a01b031633146102e85760405163118cdaa760e01b8152336004820152602401610279565b600080546001600160a01b038381166001600160a01b0319831681178455604051919092169283917f8be0079c531659141344cd1fd0a4f28419497f9722a3daafe3b4186f6b6457e09190a35050565b6002600154036106da57604051633ee5aeb560e01b815260040160405180910390fd5b6002600155565b80356001600160a01b03811681146106f857600080fd5b919050565b60006020828403121561070f57600080fd5b610718826106e1565b9392505050565b634e487b7160e01b600052602160045260246000fd5b60208101600483106107495761074961071f565b91905290565b600060208083528351808285015260005b8181101561077c57858101830151858201604001528201610760565b506000604082860101526040601f19601f8301168501019250505092915050565b60208101600383106107495761074961071f565b600080604083850312156107c457600080fd5b6107cd836106e1565b9150602083013580151581146107e257600080fd5b809150509250929050565b6000806000806060858703121561080357600080fd5b843567ffffffffffffffff8082111561081b57600080fd5b818701915087601f83011261082f57600080fd5b81358181111561083e57600080fd5b88602082850101111561085057600080fd5b60209283019650945061086691870190506106e1565b9396929550929360400135925050565b600181811c9082168061088a57607f821691505b6020821081036108aa57634e487b7160e01b600052602260045260246000fd5b50919050565b818382376000910190815291905056fea2646970667358221220c7dc5d6abdaf862619c06f52d5d3b88a7d0c5c31ad3a20e84bbfa5e67973de3064736f6c63430008140033a2646970667358221220e0e81b7be87b7bdeb3a3cc325f0aebbf0f0ba61d7083327ad6d28a9a0f87e0bc64736f6c63430008140033",
  "linkReferences": {},
  "deployedLinkReferences": {}
}