{
  "_format": "hh-sol-artifact-1",
  "contractName": "TaskRegistry",
  "sourceName": "contracts/TaskRegistry.sol",
  "abi": [
    {
      "inputs": [],
      "stateMutability": "nonpayable",
      "type": "constructor"
    },
    {
      "inputs": [
        {
          "internalType": "address",
          "name": "owner",
          "type": "address"
        }
      ],
      "name": "OwnableInvalidOwner",
      "type": "error"
    },
    {
      "inputs": [
        {
          "internalType": "address",
          "name": "account",
          "type": "address"
        }
      ],
      "name": "OwnableUnauthorizedAccount",
      "type": "error"
    },
    {
      "anonymous": false,
      "inputs": [
        {
          "indexed": true,
          "internalType": "address",
          "name": "previousOwner",
          "type": "address"
        },
        {
          "indexed": true,
          "internalType": "address",
          "name": "newOwner",
          "type": "address"
        }
      ],
      "name": "OwnershipTransferred",
      "type": "event"
    },
    {
      "anonymous": false,
      "inputs": [
        {
          "indexed": true,
          "internalType": "uint256",
          "name": "taskId",
          "type": "uint256"
        },
        {
          "indexed": true,
          "internalType": "address",
          "name": "user",
          "type": "address"
        },
        {
          "indexed": false,
          "internalType": "bool",
          "name": "allowed",
          "type": "bool"
        }
      ],
      "name": "PermissionUpdated",
      "type": "event"
    },
    {
      "anonymous": false,
      "inputs": [
        {
          "indexed": true,
          "internalType": "uint256",
          "name": "taskId",
          "type": "uint256"
        },
        {
          "indexed": true,
          "internalType": "address",
          "name": "agent",
          "type": "address"
        }
      ],
      "name": "TaskAssigned",
      "type": "event"
    },
    {
      "anonymous": false,
      "inputs": [
        {
          "indexed": true,
          "internalType": "address",
          "name": "owner",
          "type": "address"
        },
        {
          "indexed": false,
          "internalType": "uint256",
          "name": "taskId",
          "type": "uint256"
        }
      ],
      "name": "TaskCreated",
      "type": "event"
    },
    {
      "anonymous": false,
      "inputs": [
        {
          "indexed": true,
          "internalType": "uint256",
          "name": "taskId",
          "type": "uint256"
        },
        {
          "indexed": false,
          "internalType": "enum ITask.TaskStatus",
          "name": "status",
          "type": "uint8"
        }
      ],
      "name": "TaskStatusChanged",
      "type": "event"
    },
    {
      "inputs": [
        {
          "internalType": "uint256",
          "name": "taskId",
          "type": "uint256"
        },
        {
          "internalType": "address",
          "name": "_assignee",
          "type": "address"
        }
      ],
      "name": "assignTo",
      "outputs": [],
      "stateMutability": "nonpayable",
      "type": "function"
    },
    {
      "inputs": [
        {
          "internalType": "string",
          "name": "prompt",
          "type": "string"
        },
        {
          "internalType": "enum ITask.TaskType",
          "name": "taskType",
          "type": "uint8"
        }
      ],
      "name": "createTask",
      "outputs": [
        {
          "internalType": "uint256",
          "name": "",
          "type": "uint256"
        }
      ],
      "stateMutability": "nonpayable",
      "type": "function"
    },
    {
      "inputs": [
        {
          "internalType": "uint256",
          "name": "taskId",
          "type": "uint256"
        }
      ],
      "name": "getAssignee",
      "outputs": [
        {
          "internalType": "address",
          "name": "",
          "type": "address"
        }
      ],
      "stateMutability": "view",
      "type": "function"
    },
    {
      "inputs": [
        {
          "internalType": "uint256",
          "name": "taskId",
          "type": "uint256"
        }
      ],
      "name": "getStatus",
      "outputs": [
        {
          "internalType": "enum ITask.TaskStatus",
          "name": "",
          "type": "uint8"
        }
      ],
      "stateMutability": "view",
      "type": "function"
    },
    {
      "inputs": [
        {
          "internalType": "address",
          "name": "owner",
          "type": "address"
        }
      ],
      "name": "getTasksByOwner",
      "outputs": [
        {
          "internalType": "uint256[]",
          "name": "",
          "type": "uint256[]"
        }
      ],
      "stateMutability": "view",
      "type": "function"
    },
    {
      "inputs": [],
      "name": "owner",
      "outputs": [
        {
          "internalType": "address",
          "name": "",
          "type": "address"
        }
      ],
      "stateMutability": "view",
      "type": "function"
    },
    {
      "inputs": [
        {
          "internalType": "address",
          "name": "",
          "type": "address"
        },
        {
          "internalType": "uint256",
          "name": "",
          "type": "uint256"
        }
      ],
      "name": "ownerTasks",
      "outputs": [
        {
          "internalType": "uint256",
          "name": "",
          "type": "uint256"
        }
      ],
      "stateMutability": "view",
      "type": "function"
    },
    {
      "inputs": [],
      "name": "renounceOwnership",
      "outputs": [],
      "stateMutability": "nonpayable",
      "type": "function"
    },
    {
      "inputs": [
        {
          "internalType": "uint256",
          "name": "taskId",
          "type": "uint256"
        },
        {
          "internalType": "address",
          "name": "user",
          "type": "address"
        },
        {
          "internalType": "bool",
          "name": "allowed",
          "type": "bool"
        }
      ],
      "name": "setPermission",
      "outputs": [],
      "stateMutability": "nonpayable",
      "type": "function"
    },
    {
      "inputs": [
        {
          "internalType": "uint256",
          "name": "",
          "type": "uint256"
        }
      ],
      "name": "tasks",
      "outputs": [
        {
          "internalType": "uint256",
          "name": "id",
          "type": "uint256"
        },
        {
          "internalType": "string",
          "name": "prompt",
          "type": "string"
        },
        {
          "internalType": "enum ITask.TaskType",
          "name": "taskType",
          "type": "uint8"
        },
        {
          "internalType": "address",
          "name": "owner",
          "type": "address"
        },
        {
          "internalType": "enum ITask.TaskStatus",
          "name": "status",
          "type": "uint8"
        },
        {
          "internalType": "address",
          "name": "assignee",
          "type": "address"
        }
      ],
      "stateMutability": "view",
      "type": "function"
    },
    {
      "inputs": [
        {
          "internalType": "address",
          "name": "newOwner",
          "type": "address"
        }
      ],
      "name": "transferOwnership",
      "outputs": [],
      "stateMutability": "nonpayable",
      "type": "function"
    },
    {
      "inputs": [
        {
          "internalType": "uint256",
          "name": "taskId",
          "type": "uint256"
        },
        {
          "internalType": "enum ITask.TaskStatus",
          "name": "newStatus",
          "type": "uint8"
        }
      ],
      "name": "updateTaskStatus",
      "outputs": [],
      "stateMutability": "nonpayable",
      "type": "function"
    }
  ],
  "bytecode": "0x608060405234801561001057600080fd5b50338061003757604051631e4fbdf760e01b81526000600482015260240160405180910390fd5b61004081610046565b50610096565b600080546001600160a01b038381166001600160a01b0319831681178455604051919092169283917f8be0079c531659141344cd1fd0a4f28419497f9722a3daafe3b4186f6b6457e09190a35050565b610cee806100a56000396000f3fe608060405234801561001057600080fd5b50600436106100b45760003560e01c80638da5cb5b116100715780638da5cb5b1461019f578063ab9b6811146101b0578063df262fde146101c3578063e42891ea146101d6578063f0f39ce4146101e9578063f2fde38b1461020957600080fd5b806303d5489a146100b957806307b31818146100df5780635ba0d8d7146101235780635c622a0e14610136578063715018a6146101705780638d9776721461017a575b600080fd5b6100cc6100c7366004610842565b61021c565b6040519081526020015b60405180910390f35b61010b6100ed36600461086c565b6000908152600160205260409020600301546001600160a01b031690565b6040516001600160a01b0390911681526020016100d6565b6100cc6101313660046108aa565b61024d565b61016361014436600461086c565b600090815260016020526040902060020154600160a81b900460ff1690565b6040516100d69190610996565b61017861035e565b005b61018d61018836600461086c565b610372565b6040516100d6969594939291906109b4565b6000546001600160a01b031661010b565b6101786101be366004610a46565b610444565b6101786101d1366004610a7a565b6104c3565b6101786101e4366004610abf565b61058d565b6101fc6101f7366004610ae2565b6106ff565b6040516100d69190610b04565b610178610217366004610ae2565b61076b565b6002602052816000526040600020818154811061023857600080fd5b90600052602060002001600091509150505481565b600380546000918261025e83610b48565b9091555050600354600081815260016020819052604090912091825581016102868582610bf8565b50828160020160006101000a81548160ff021916908360028111156102ad576102ad61096c565b021790555060028181018054610100600160b01b03191633610100810260ff60a81b1916919091179091553060009081526004840160209081526040808320805460ff191660019081179091558484529482528083206003805482549788018355918552938390209095019490945590548351908152925191927fb1c0ef93ef5afc0800a5789b004fdaf5931873276c7ccb409e7d1a310906886a929081900390910190a250506003545b92915050565b6103666107a9565b61037060006107d6565b565b60016020819052600091825260409091208054918101805461039390610b6f565b80601f01602080910402602001604051908101604052809291908181526020018280546103bf90610b6f565b801561040c5780601f106103e15761010080835404028352916020019161040c565b820191906000526020600020905b8154815290600101906020018083116103ef57829003601f168201915b5050506002840154600390940154929360ff808216946001600160a01b03610100840481169550600160a81b90930490911692501686565b61044c6107a9565b600082815260016020526040902060028101805483919060ff60a81b1916600160a81b8360038111156104815761048161096c565b0217905550827fd76ef80cfb1ce0c70d0cbc0ab1b9f2f298a78f9fca5c841be963ae9a5d721bb4836040516104b69190610996565b60405180910390a2505050565b6000838152600160205260409020600281015461010090046001600160a01b031633146105285760405162461bcd60e51b815260206004820152600e60248201526d139bdd08185d5d1a1bdc9a5e995960921b60448201526064015b60405180910390fd5b6001600160a01b0383166000818152600483016020908152604091829020805460ff1916861515908117909155915191825286917f412cc27073bf042a9c439eb5c3ed8fb26c5331cfc0b66c4d5b8321657c3966ed910160405180910390a350505050565b6000828152600160205260409020600281015461010090046001600160a01b03163314806105cc575033600090815260048201602052604090205460ff165b6106095760405162461bcd60e51b815260206004820152600e60248201526d139bdd08185d5d1a1bdc9a5e995960921b604482015260640161051f565b60006002820154600160a81b900460ff16600381111561062b5761062b61096c565b1461066e5760405162461bcd60e51b8152602060048201526013602482015272496e76616c6964207461736b2073746174757360681b604482015260640161051f565b6003810180546001600160a01b0319166001600160a01b03841690811790915560028201805460ff60a81b1916600160a81b17905560405184907f52476d55ecef5cf13caa64038f297fe6bbf865d9584a98b8722a15a6d5db128f90600090a3827fd76ef80cfb1ce0c70d0cbc0ab1b9f2f298a78f9fca5c841be963ae9a5d721bb460016040516104b69190610996565b6001600160a01b03811660009081526002602090815260409182902080548351818402810184019094528084526060939283018282801561075f57602002820191906000526020600020905b81548152602001906001019080831161074b575b50505050509050919050565b6107736107a9565b6001600160a01b03811661079d57604051631e4fbdf760e01b81526000600482015260240161051f565b6107a6816107d6565b50565b6000546001600160a01b031633146103705760405163118cdaa760e01b815233600482015260240161051f565b600080546001600160a01b038381166001600160a01b0319831681178455604051919092169283917f8be0079c531659141344cd1fd0a4f28419497f9722a3daafe3b4186f6b6457e09190a35050565b80356001600160a01b038116811461083d57600080fd5b919050565b6000806040838503121561085557600080fd5b61085e83610826565b946020939093013593505050565b60006020828403121561087e57600080fd5b5035919050565b634e487b7160e01b600052604160045260246000fd5b80356003811061083d57600080fd5b600080604083850312156108bd57600080fd5b823567ffffffffffffffff808211156108d557600080fd5b818501915085601f8301126108e957600080fd5b8135818111156108fb576108fb610885565b604051601f8201601f19908116603f0116810190838211818310171561092357610923610885565b8160405282815288602084870101111561093c57600080fd5b8260208601602083013760006020848301015280965050505050506109636020840161089b565b90509250929050565b634e487b7160e01b600052602160045260246000fd5b600481106109925761099261096c565b9052565b602081016103588284610982565b600381106109925761099261096c565b8681526000602060c08184015287518060c085015260005b818110156109e85789810183015185820160e0015282016109cc565b50600060e0828601015260e0601f19601f83011685010192505050610a1060408301876109a4565b6001600160a01b0385166060830152610a2c6080830185610982565b6001600160a01b03831660a0830152979650505050505050565b60008060408385031215610a5957600080fd5b82359150602083013560048110610a6f57600080fd5b809150509250929050565b600080600060608486031215610a8f57600080fd5b83359250610a9f60208501610826565b915060408401358015158114610ab457600080fd5b809150509250925092565b60008060408385031215610ad257600080fd5b8235915061096360208401610826565b600060208284031215610af457600080fd5b610afd82610826565b9392505050565b6020808252825182820181905260009190848201906040850190845b81811015610b3c57835183529284019291840191600101610b20565b50909695505050505050565b600060018201610b6857634e487b7160e01b600052601160045260246000fd5b5060010190565b600181811c90821680610b8357607f821691505b602082108103610ba357634e487b7160e01b600052602260045260246000fd5b50919050565b601f821115610bf357600081815260208120601f850160051c81016020861015610bd05750805b601f850160051c820191505b81811015610bef57828155600101610bdc565b5050505b505050565b815167ffffffffffffffff811115610c1257610c12610885565b610c2681610c208454610b6f565b84610ba9565b602080601f831160018114610c5b5760008415610c435750858301515b600019600386901b1c1916600185901b178555610bef565b600085815260208120601f198616915b82811015610c8a57888601518255948401946001909101908401610c6b565b5085821015610ca85787850151600019600388901b60f8161c191681555b5050505050600190811b0190555056fea2646970667358221220bfd3bb2b844f1414ba0a5aff9678d62f110e53f1d5c09344641a3a0a1fd6ad0264736f6c63430008140033",
  "linkReferences": {},
  "deployedLinkReferences": {}
}