{
  "_format": "hh-sol-artifact-1",
  "contractName": "TaskRegistry",
  "sourceName": "contracts/TaskRegistry.sol",
  "abi": [
    {
      "inputs": [],
      "stateMutability": "nonpayable",
      "type": "constructor"
    },
    {
      "inputs": [
        {
          "internalType": "address",
          "name": "owner",
          "type": "address"
        }
      ],
      "name": "OwnableInvalidOwner",
      "type": "error"
    },
    {
      "inputs": [
        {
          "internalType": "address",
          "name": "account",
          "type": "address"
        }
      ],
      "name": "OwnableUnauthorizedAccount",
      "type": "error"
    },
    {
      "anonymous": false,
      "inputs": [
        {
          "indexed": true,
          "internalType": "address",
          "name": "previousOwner",
          "type": "address"
        },
        {
          "indexed": true,
          "internalType": "address",
          "name": "newOwner",
          "type": "address"
        }
      ],
      "name": "OwnershipTransferred",
      "type": "event"
    },
    {
      "anonymous": false,
      "inputs": [
        {
          "indexed": true,
          "internalType": "uint256",
          "name": "taskId",
          "type": "uint256"
        },
        {
          "indexed": true,
          "internalType": "address",
          "name": "user",
          "type": "address"
        },
        {
          "indexed": false,
          "internalType": "bool",
          "name": "allowed",
          "type": "bool"
        }
      ],
      "name": "PermissionUpdated",
      "type": "event"
    },
    {
      "anonymous": false,
      "inputs": [
        {
          "indexed": true,
          "internalType": "uint256",
          "name": "taskId",
          "type": "uint256"
        },
        {
          "components": [
            {
              "internalType": "uint256",
              "name": "id",
              "type": "uint256"
            },
            {
              "internalType": "uint256",
              "name": "price",
              "type": "uint256"
            },
            {
              "internalType": "uint256",
              "name": "taskId",
              "type": "uint256"
            },
            {
              "internalType": "address",
              "name": "agent",
              "type": "address"
            }
          ],
          "indexed": false,
          "internalType": "struct TaskRegistry.ProposalData",
          "name": "proposal",
          "type": "tuple"
        }
      ],
      "name": "ProposalApproved",
      "type": "event"
    },
    {
      "anonymous": false,
      "inputs": [
        {
          "indexed": true,
          "internalType": "uint256",
          "name": "taskId",
          "type": "uint256"
        },
        {
          "indexed": true,
          "internalType": "address",
          "name": "agent",
          "type": "address"
        }
      ],
      "name": "TaskAssigned",
      "type": "event"
    },
    {
      "anonymous": false,
      "inputs": [
        {
          "indexed": true,
          "internalType": "uint256",
          "name": "taskId",
          "type": "uint256"
        },
        {
          "indexed": false,
          "internalType": "string",
          "name": "result",
          "type": "string"
        }
      ],
      "name": "TaskCompleted",
      "type": "event"
    },
    {
      "anonymous": false,
      "inputs": [
        {
          "indexed": true,
          "internalType": "address",
          "name": "owner",
          "type": "address"
        },
        {
          "indexed": false,
          "internalType": "uint256",
          "name": "taskId",
          "type": "uint256"
        },
        {
          "indexed": false,
          "internalType": "string",
          "name": "prompt",
          "type": "string"
        },
        {
          "indexed": false,
          "internalType": "enum TaskRegistry.TaskType",
          "name": "taskType",
          "type": "uint8"
        }
      ],
      "name": "TaskCreated",
      "type": "event"
    },
    {
      "anonymous": false,
      "inputs": [
        {
          "indexed": true,
          "internalType": "uint256",
          "name": "taskId",
          "type": "uint256"
        },
        {
          "indexed": false,
          "internalType": "enum TaskRegistry.TaskStatus",
          "name": "status",
          "type": "uint8"
        }
      ],
      "name": "TaskStatusChanged",
      "type": "event"
    },
    {
      "inputs": [
        {
          "internalType": "uint256",
          "name": "taskId",
          "type": "uint256"
        },
        {
          "components": [
            {
              "internalType": "uint256",
              "name": "id",
              "type": "uint256"
            },
            {
              "internalType": "uint256",
              "name": "price",
              "type": "uint256"
            },
            {
              "internalType": "uint256",
              "name": "taskId",
              "type": "uint256"
            },
            {
              "internalType": "address",
              "name": "agent",
              "type": "address"
            }
          ],
          "internalType": "struct TaskRegistry.ProposalData",
          "name": "proposal",
          "type": "tuple"
        }
      ],
      "name": "approveProposal",
      "outputs": [],
      "stateMutability": "nonpayable",
      "type": "function"
    },
    {
      "inputs": [
        {
          "internalType": "uint256",
          "name": "taskId",
          "type": "uint256"
        },
        {
          "internalType": "string",
          "name": "result",
          "type": "string"
        }
      ],
      "name": "completeTask",
      "outputs": [],
      "stateMutability": "nonpayable",
      "type": "function"
    },
    {
      "inputs": [
        {
          "internalType": "string",
          "name": "prompt",
          "type": "string"
        },
        {
          "internalType": "enum TaskRegistry.TaskType",
          "name": "taskType",
          "type": "uint8"
        }
      ],
      "name": "createTask",
      "outputs": [
        {
          "internalType": "uint256",
          "name": "",
          "type": "uint256"
        }
      ],
      "stateMutability": "nonpayable",
      "type": "function"
    },
    {
      "inputs": [
        {
          "internalType": "uint256",
          "name": "taskId",
          "type": "uint256"
        }
      ],
      "name": "getAssignee",
      "outputs": [
        {
          "internalType": "address",
          "name": "",
          "type": "address"
        }
      ],
      "stateMutability": "view",
      "type": "function"
    },
    {
      "inputs": [
        {
          "internalType": "uint256",
          "name": "taskId",
          "type": "uint256"
        }
      ],
      "name": "getStatus",
      "outputs": [
        {
          "internalType": "enum TaskRegistry.TaskStatus",
          "name": "",
          "type": "uint8"
        }
      ],
      "stateMutability": "view",
      "type": "function"
    },
    {
      "inputs": [
        {
          "internalType": "address",
          "name": "owner",
          "type": "address"
        }
      ],
      "name": "getTasksByOwner",
      "outputs": [
        {
          "internalType": "uint256[]",
          "name": "",
          "type": "uint256[]"
        }
      ],
      "stateMutability": "view",
      "type": "function"
    },
    {
      "inputs": [],
      "name": "owner",
      "outputs": [
        {
          "internalType": "address",
          "name": "",
          "type": "address"
        }
      ],
      "stateMutability": "view",
      "type": "function"
    },
    {
      "inputs": [
        {
          "internalType": "address",
          "name": "",
          "type": "address"
        },
        {
          "internalType": "uint256",
          "name": "",
          "type": "uint256"
        }
      ],
      "name": "ownerTasks",
      "outputs": [
        {
          "internalType": "uint256",
          "name": "",
          "type": "uint256"
        }
      ],
      "stateMutability": "view",
      "type": "function"
    },
    {
      "inputs": [],
      "name": "renounceOwnership",
      "outputs": [],
      "stateMutability": "nonpayable",
      "type": "function"
    },
    {
      "inputs": [
        {
          "internalType": "uint256",
          "name": "taskId",
          "type": "uint256"
        },
        {
          "internalType": "address",
          "name": "user",
          "type": "address"
        },
        {
          "internalType": "bool",
          "name": "allowed",
          "type": "bool"
        }
      ],
      "name": "setPermission",
      "outputs": [],
      "stateMutability": "nonpayable",
      "type": "function"
    },
    {
      "inputs": [
        {
          "internalType": "uint256",
          "name": "",
          "type": "uint256"
        }
      ],
      "name": "tasks",
      "outputs": [
        {
          "internalType": "uint256",
          "name": "id",
          "type": "uint256"
        },
        {
          "internalType": "string",
          "name": "prompt",
          "type": "string"
        },
        {
          "internalType": "enum TaskRegistry.TaskType",
          "name": "taskType",
          "type": "uint8"
        },
        {
          "internalType": "address",
          "name": "owner",
          "type": "address"
        },
        {
          "internalType": "enum TaskRegistry.TaskStatus",
          "name": "status",
          "type": "uint8"
        },
        {
          "internalType": "address",
          "name": "assignee",
          "type": "address"
        },
        {
          "components": [
            {
              "internalType": "uint256",
              "name": "id",
              "type": "uint256"
            },
            {
              "internalType": "uint256",
              "name": "price",
              "type": "uint256"
            },
            {
              "internalType": "uint256",
              "name": "taskId",
              "type": "uint256"
            },
            {
              "internalType": "address",
              "name": "agent",
              "type": "address"
            }
          ],
          "internalType": "struct TaskRegistry.ProposalData",
          "name": "proposal",
          "type": "tuple"
        }
      ],
      "stateMutability": "view",
      "type": "function"
    },
    {
      "inputs": [
        {
          "internalType": "address",
          "name": "newOwner",
          "type": "address"
        }
      ],
      "name": "transferOwnership",
      "outputs": [],
      "stateMutability": "nonpayable",
      "type": "function"
    },
    {
      "inputs": [
        {
          "internalType": "uint256",
          "name": "taskId",
          "type": "uint256"
        },
        {
          "internalType": "enum TaskRegistry.TaskStatus",
          "name": "newStatus",
          "type": "uint8"
        }
      ],
      "name": "updateTaskStatus",
      "outputs": [],
      "stateMutability": "nonpayable",
      "type": "function"
    }
  ],
  "bytecode": "0x608060405234801561001057600080fd5b50338061003757604051631e4fbdf760e01b81526000600482015260240160405180910390fd5b61004081610046565b50610096565b600080546001600160a01b038381166001600160a01b0319831681178455604051919092169283917f8be0079c531659141344cd1fd0a4f28419497f9722a3daafe3b4186f6b6457e09190a35050565b61101d806100a56000396000f3fe608060405234801561001057600080fd5b50600436106100cf5760003560e01c8063818628471161008c578063ab9b681111610066578063ab9b6811146101f2578063df262fde14610205578063f0f39ce414610218578063f2fde38b1461023857600080fd5b806381862847146101a85780638d977672146101bb5780638da5cb5b146101e157600080fd5b806303d5489a146100d457806307b31818146100fa5780635ba0d8d71461013e5780635c622a0e14610151578063715018a61461018b57806374aaa76014610195575b600080fd5b6100e76100e23660046109df565b61024b565b6040519081526020015b60405180910390f35b610126610108366004610a09565b6000908152600160205260409020600301546001600160a01b031690565b6040516001600160a01b0390911681526020016100f1565b6100e761014c366004610ac5565b61027c565b61017e61015f366004610a09565b600090815260016020526040902060020154600160a81b900460ff1690565b6040516100f19190610b45565b610193610394565b005b6101936101a3366004610b53565b6103a8565b6101936101b6366004610b9a565b6104e7565b6101ce6101c9366004610a09565b610680565b6040516100f19796959493929190610c7a565b6000546001600160a01b0316610126565b610193610200366004610d04565b610786565b610193610213366004610d2d565b6107f8565b61022b610226366004610d72565b61089c565b6040516100f19190610d94565b610193610246366004610d72565b610908565b6002602052816000526040600020818154811061026757600080fd5b90600052602060002001600091509150505481565b600380546000918261028d83610dd8565b9091555050600354600081815260016020819052604090912091825581016102b58582610e88565b50828160020160006101000a81548160ff021916908360028111156102dc576102dc610b1b565b021790555060028181018054610100600160b01b03191633610100810260ff60a81b1916919091179091553060009081526008840160209081526040808320805460ff191660019081179091558484529482528083206003805482549788018355918552929093209094019190915554915190917f11bf9052a16c87f04a83790b4d680f3b44d08b95faa466d9dfead8393806cc2991610380919088908890610f48565b60405180910390a250506003545b92915050565b61039c610946565b6103a66000610973565b565b600082815260016020526040902060038101546001600160a01b031633146103eb5760405162461bcd60e51b81526004016103e290610f78565b60405180910390fd5b60016002820154600160a81b900460ff16600381111561040d5761040d610b1b565b146104505760405162461bcd60e51b8152602060048201526013602482015272496e76616c6964207461736b2073746174757360681b60448201526064016103e2565b60028101805460ff60a81b1916600160a91b179081905560405184917fd76ef80cfb1ce0c70d0cbc0ab1b9f2f298a78f9fca5c841be963ae9a5d721bb4916104a291600160a81b900460ff1690610b45565b60405180910390a2827f7e6ffc29fe63759579d96a0457a8f2e08339aca345bd469f59dc2e61f82a5aeb836040516104da9190610fa0565b60405180910390a2505050565b6000828152600160205260409020600281015461010090046001600160a01b0316331480610526575033600090815260088201602052604090205460ff165b6105425760405162461bcd60e51b81526004016103e290610f78565b60006002820154600160a81b900460ff16600381111561056457610564610b1b565b146105a75760405162461bcd60e51b8152602060048201526013602482015272496e76616c6964207461736b2073746174757360681b60448201526064016103e2565b8151600482015560208201516005820155604080830151600683015560608301516007830180546001600160a01b03199081166001600160a01b0390931692831790915560028401805460ff60a81b1916600160a81b90811791829055600386018054909316909317909155915185927fd76ef80cfb1ce0c70d0cbc0ab1b9f2f298a78f9fca5c841be963ae9a5d721bb49261064892910460ff1690610b45565b60405180910390a2827fcfe0c3d4e3ad1484c232196330c72bdf8c0f56ae162f210425bae8c6cedb05d3836040516104da9190610fb3565b6001602081905260009182526040909120805491810180546106a190610dff565b80601f01602080910402602001604051908101604052809291908181526020018280546106cd90610dff565b801561071a5780601f106106ef5761010080835404028352916020019161071a565b820191906000526020600020905b8154815290600101906020018083116106fd57829003601f168201915b505050600284015460038501546040805160808101825260048801548152600588015460208201526006880154918101919091526007909601546001600160a01b039081166060880152949560ff80841696610100850481169650600160a81b90940416935091169087565b61078e610946565b600082815260016020526040902060028101805483919060ff60a81b1916600160a81b8360038111156107c3576107c3610b1b565b0217905550827fd76ef80cfb1ce0c70d0cbc0ab1b9f2f298a78f9fca5c841be963ae9a5d721bb4836040516104da9190610b45565b6000838152600160205260409020600281015461010090046001600160a01b031633146108375760405162461bcd60e51b81526004016103e290610f78565b6001600160a01b0383166000818152600883016020908152604091829020805460ff1916861515908117909155915191825286917f412cc27073bf042a9c439eb5c3ed8fb26c5331cfc0b66c4d5b8321657c3966ed910160405180910390a350505050565b6001600160a01b0381166000908152600260209081526040918290208054835181840281018401909452808452606093928301828280156108fc57602002820191906000526020600020905b8154815260200190600101908083116108e8575b50505050509050919050565b610910610946565b6001600160a01b03811661093a57604051631e4fbdf760e01b8152600060048201526024016103e2565b61094381610973565b50565b6000546001600160a01b031633146103a65760405163118cdaa760e01b81523360048201526024016103e2565b600080546001600160a01b038381166001600160a01b0319831681178455604051919092169283917f8be0079c531659141344cd1fd0a4f28419497f9722a3daafe3b4186f6b6457e09190a35050565b80356001600160a01b03811681146109da57600080fd5b919050565b600080604083850312156109f257600080fd5b6109fb836109c3565b946020939093013593505050565b600060208284031215610a1b57600080fd5b5035919050565b634e487b7160e01b600052604160045260246000fd5b600082601f830112610a4957600080fd5b813567ffffffffffffffff80821115610a6457610a64610a22565b604051601f8301601f19908116603f01168101908282118183101715610a8c57610a8c610a22565b81604052838152866020858801011115610aa557600080fd5b836020870160208301376000602085830101528094505050505092915050565b60008060408385031215610ad857600080fd5b823567ffffffffffffffff811115610aef57600080fd5b610afb85828601610a38565b925050602083013560038110610b1057600080fd5b809150509250929050565b634e487b7160e01b600052602160045260246000fd5b60048110610b4157610b41610b1b565b9052565b6020810161038e8284610b31565b60008060408385031215610b6657600080fd5b82359150602083013567ffffffffffffffff811115610b8457600080fd5b610b9085828601610a38565b9150509250929050565b60008082840360a0811215610bae57600080fd5b833592506080601f1982011215610bc457600080fd5b506040516080810181811067ffffffffffffffff82111715610be857610be8610a22565b8060405250602084013581526040840135602082015260608401356040820152610c14608085016109c3565b6060820152809150509250929050565b6000815180845260005b81811015610c4a57602081850181015186830182015201610c2e565b506000602082860101526020601f19601f83011685010191505092915050565b60038110610b4157610b41610b1b565b6000610140898352806020840152610c948184018a610c24565b915050610ca46040830188610c6a565b6001600160a01b038681166060840152610cc16080840187610b31565b841660a0830152825160c0830152602083015160e0830152604083015161010083015260608301516001600160a01b031661012083015298975050505050505050565b60008060408385031215610d1757600080fd5b82359150602083013560048110610b1057600080fd5b600080600060608486031215610d4257600080fd5b83359250610d52602085016109c3565b915060408401358015158114610d6757600080fd5b809150509250925092565b600060208284031215610d8457600080fd5b610d8d826109c3565b9392505050565b6020808252825182820181905260009190848201906040850190845b81811015610dcc57835183529284019291840191600101610db0565b50909695505050505050565b600060018201610df857634e487b7160e01b600052601160045260246000fd5b5060010190565b600181811c90821680610e1357607f821691505b602082108103610e3357634e487b7160e01b600052602260045260246000fd5b50919050565b601f821115610e8357600081815260208120601f850160051c81016020861015610e605750805b601f850160051c820191505b81811015610e7f57828155600101610e6c565b5050505b505050565b815167ffffffffffffffff811115610ea257610ea2610a22565b610eb681610eb08454610dff565b84610e39565b602080601f831160018114610eeb5760008415610ed35750858301515b600019600386901b1c1916600185901b178555610e7f565b600085815260208120601f198616915b82811015610f1a57888601518255948401946001909101908401610efb565b5085821015610f385787850151600019600388901b60f8161c191681555b5050505050600190811b01905550565b838152606060208201526000610f616060830185610c24565b9050610f706040830184610c6a565b949350505050565b6020808252600e908201526d139bdd08185d5d1a1bdc9a5e995960921b604082015260600190565b602081526000610d8d6020830184610c24565b8151815260208083015190820152604080830151908201526060808301516001600160a01b0316908201526080810161038e56fea2646970667358221220788158c62b058c76e277cdaef2c835574fbb808a3aa756144c3e876da26cafe064736f6c63430008140033",
  "linkReferences": {},
  "deployedLinkReferences": {}
}